:020000040800F2
:10000000400B002081020008E12100086D1C00085F
:10001000D5210008B5130008B54E00080000000007
:10002000000000000000000000000000BD370008D4
:10003000DD16000800000000552D0008D939000821
:100040009B0200089B0200089B0200089B0200081C
:100050009B0200089B0200089B0200089B0200080C
:100060009B0200089B0200089B0200089B020008FC
:100070009B0200089B0200089B0200089B020008EC
:10008000ED1300089B0200089B0200089B02000879
:100090009B0200089B0200089B0200089B020008CC
:1000A0009B0200089B0200089B0200089B020008BC
:1000B000B93A00089B0200089B0200089B02000856
:1000C0009B0200089B0200089B0200089B0200089C
:1000D0009B0200089B0200089B0200089B0200088C
:1000E0009B0200089B0200089B0200089B0200087C
:1000F0009B0200089B0200089B0200089B0200086C
:100100009B0200089B0200089B0200089B0200085B
:100110009B0200089B020008B13B00089B020008FC
:100120009B0200089B0200089B0200089B0200083B
:100130009B0200089B0200089B0200089B0200082B
:100140009B0200089B0200089B0200089B0200081B
:100150009B0200089B0200089B0200089B0200080B
:100160009B0200089B0200089B0200089B020008FB
:100170009B0200089B0200089B0200089B020008EB
:100180009B0200089B02000800F002F800F069F8EA
:100190000AA090E8000C82448344AAF10107DA45E2
:1001A00001D100F05EF8AFF2090EBAE80F0013F0CB
:1001B000010F18BFFB1A43F00103184798620000B3
:1001C000B86200000A444FF0000C10F8013B13F035
:1001D000070408BF10F8014B1D1108BF10F8015BA0
:1001E000641E05D010F8016B641E01F8016BF9D193
:1001F00013F0080F1EBF10F8014BAD1C0C1B09D1EA
:100200006D1E58BF01F801CBFAD505E014F8016B5B
:1002100001F8016B6D1EF9D59142D6D370470000ED
:100220000023002400250026103A28BF78C1FBD8FF
:10023000520728BF30C148BF0B607047662906F0DF
:100240008880002070471FB506F079F800F04EFB5B
:1002500004000020002105F001FBE0601FBD10B587
:1002600010BD00F047FC1146FFF7EDFF05F0C4F9A3
:1002700000F065FC03B4FFF7F2FF03BC00F0A8FC3C
:100280000948804709480047FEE7FEE7FEE7FEE72A
:10029000FEE7FEE7FEE7FEE7FEE7FEE70448054966
:1002A000054A064B70470000F5390008890100082F
:1002B00040050020400B00204007002040070020A0
:1002C0000FB41CB5084B06AA7B44694600900598FC
:1002D00000F0F3FA04460020694600F001FB2046D6
:1002E0001CBC5DF814FB0000150600002DE9F05F52
:1002F000894604464FF0000ADFF874B1FB44C0F8A9
:1003000020A02046E1688847002874D0252806D020
:10031000D4E901219047206A401C2062F1E70026C1
:100320005F462046E16888472028054607DB312DD7
:1003300005D2781910F8200C08B10643F1E7B00790
:1003400001D526F00406C4F81CA00027C4F818A0A4
:100350002A2D09D0284605F01BF838B304EB87088E
:10036000303DC8F8185019E059F8041B204604EB3A
:1003700087029161E1688847012F054618D1E0693D
:10038000002820DA26F020061DE0D8F8180000EB3F
:10039000800005EB40003038C8F818002046E168BE
:1003A0008847054604F0F4FF0028EED1012F0AD05B
:1003B0002E2D08D12046E16888477F1C0546022F74
:1003C00046F02006C4DBA069002803DA404246F06C
:1003D0000106A061F00701D026F010066C2D0BD0AD
:1003E000682D09D04C2D39D06A2D35D0742D35D0DB
:1003F0007A2D33D016E038E0E1682F462046884752
:10040000B842054609D16C2F26D04FF48060E168D0
:10041000064320468847054604E06C2F1AD04FF467
:10042000807006430DB3A5F14100192802D820358C
:1004300046F400664A462946204626604E46FFF7A7
:10044000FDFE80B101280BD0F61D26F0070000F15B
:10045000080956E74020E4E78020D8E70020D6E7E7
:1004600006F104094DE7284652E7206ABDE8F09FEF
:100470005660000070477047704710B500F03AFAB8
:10048000006810BD10B5044600F034FA046010BDD9
:1004900070472DE9FF4F0C461E464FF0FF378BB0DB
:1004A000D2E90001DDF860800A908A46C1F30A555E
:1004B00005B93D46002108464FF00000BAF1000F93
:1004C00000F4400005DA00EB80004FF4400101EA3F
:1004D00050004FEA9059B9F1010F00DDB9460A9872
:1004E00050EA4A000ED044F61050A5F2FF354543BD
:1004F0002F14B8F1000F1ED07542291E1EDDC9F160
:1005000000021CE0B8F1010F4FF0000001D03021D3
:1005100003E0F24305E02154401CB042FBDB3046CF
:100520000022002121540B99C1F80880C1E9002064
:100530000FB0BDE8F08FBD1B6D1CDEE74A4600DA48
:10054000694206A800F060FA06AB93E8070003AB27
:1005500083E8070050460A9900F041FB8DE8070048
:10056000A0F500501F3800900398002D0ADD42F2DC
:100570001F014A460844002303A90390684600F07F
:10058000AAFD09E0A0F500504A461F38002303A940
:100590000390684600F0B4FD8DE807000004000CED
:1005A00003D04FF0FF30410800E01046B8F1000FD3
:1005B00003D00022009215461EE0751E05D400F0FF
:1005C0009DF9303262556D1EF9D5B34601220843BC
:1005D00002D000227F1C04E02078302801D10022C4
:1005E0007F1E002A099784D01DE0112D07DA00F044
:1005F00085F9303262556D1C50EA0102F5D108438D
:1006000002D00098C8B10EE00021681E05E0235C0E
:10061000625C63542254401E491C8142F7DBAB46A6
:10062000A81B401E0990002004F80B000B98099AA3
:10063000C0F80880C0E9002B7AE711264FF00008C7
:1006400057E72DE9F04F88460446D21D22F00701F6
:1006500091B0D1E90001CDE90A0104F02DFC024678
:100660000B98C00F01D02D2007E02068810701D52D
:100670002B2002E0202101EAC000032A099001D0CA
:10068000072A05DB03464146204600F07DF90BE1D1
:100690002078800601D5E06900E00620B8F1650FFA
:1006A000814606D0B8F1660F18D0B8F1670F70D147
:1006B00031E00020B9F1110F009001DB112301E0BE
:1006C00009F101030AAA01A90CA8FFF7E2FEDDE97E
:1006D0000C70002609F10105834647E001204B46D6
:1006E00000904FF000470AAA01A90CA8FFF7D1FE1D
:1006F000DDE90DB00C995D46002610B909F1010045
:100700000D18B9EB050003D4C0F1FF3609F101055E
:10071000A5EB09002BE0B9F1010F01DA4FF0010957
:100720000020B9F1110F0090484601DD112300E0CF
:1007300003460AAA01A90CA8FFF7ABFEDDE90C707D
:100740004D4600268346207800070AD4AB4500DAE0
:100750005D4601A8012D04DD411911F8011C302965
:1007600007D04F4502DA17F1040F04DA0120824660
:100770000FE06D1EEEE7002F02DCED1B3E4403E0B0
:10078000781CA84200DD7D1CB81B00F1010A4FF067
:1007900000472078000703D4AA4501DB4FF0FF3A59
:1007A0000021B7F1004F0DF143088DF8431024D01C
:1007B00002202B23002F01DA7F422D230A21021E63
:1007C000A0F1010000DC5FB197FBF1FC97FBF1F2B7
:1007D00001FB1C7C17460CF1300C08F801CDEEE74C
:1007E000A8F1010003702188090501D5452100E029
:1007F0006521A0F1010800F8011C09980FA9A1EBDF
:100800000807FF1D00B10120411901EBEA70A16941
:100810003844081A401EA0612078C00602D4204641
:10082000AFF30080099828B1D4E901219047206AEC
:10083000401C20622078C00622D52046AFF30080FD
:100840001EE0002E04DBB34502DD01A8805D00E060
:100850003020D4E901219047206A401C2062761C98
:10086000AAF101005FEA000A0AD100F03FF8C0686F
:100870000168405CD4E901219047206A401C206255
:10088000281EA5F10105DCDC07E0D4E9012118F8F8
:10089000010B9047206A401C2062381EA7F1010717
:1008A000F3DC2046AFF30080032011B041E60000E6
:1008B00001694A1C02610878704700B58FB0CDE924
:1008C00001310021059105497944CDE90310114614
:1008D0006846FFF70BFD0FB000BD0000E5FFFFFF0E
:1008E0000A6802F8010B0A60704700000048704770
:1008F000FC04002000487047DC04002030B5B0F153
:100900000A024FEA900E71F100034EEA817EB0EBCD
:100910000E0061EB91014FEA101E4EEA017E10EBD2
:100920000E0041EB11114FEA102E4EEA016E10EB52
:100930000E0041EB11214FEA104E4EEA014E10EB32
:100940000E0041EB1141401841F100014FEAD00087
:1009500040EA41704FEAD10110EB80054FEA810473
:1009600044EA907444EB01046D1944EB0404521BF7
:10097000A3414FF0000348BF0A3200D530BD401CF0
:1009800041F1000130BD00002DE9F0411F46044651
:1009900003260168072A01F4006004DB08B116A5EC
:1009A00005E016A503E008B115A500E015A521F0A6
:1009B00010002060A069C01EA0610FB1401EA061A0
:1009C0002046AFF300804FB1D4E90121384690476B
:1009D000206A401C2062C01C206206E0206AFAE700
:1009E000D4E9012115F8010B9047761EF8D2204674
:1009F000AFF30080BDE8F0814E414E006E616E00A5
:100A0000494E4600696E66002DE9F047814616465C
:100A10008AB0354878440DC88DE80D0032487844D6
:100A2000801C03AC0DC884E80D0041F69B300844DF
:100A3000372190FBF1F290FBF1F5A5F1800501FB68
:100A400012041B3C02D56442012000E00020DFF8C4
:100A500098A080460027FA44AAF1BE0A0EE0E007FB
:100A60000AD03246684607EB470101230AEB8101B1
:100A700000F046FB8DE8070064107F1C002CEED1CF
:100A8000194F7F44AE3F19E0E80715D007EB04107B
:100A90000DF1180A90E80E008AE80E00C068F042D6
:100AA00001D1981908903246012306A903A800F045
:100AB00027FB03AB83E807006D10641C002DE3D116
:100AC0004FF0010332466946B8F1000F03A802D087
:100AD00000F001FB01E000F013FBC9E90001C9F8D7
:100AE00008200AB0BDE8F087245A0000004870478B
:100AF000DC0400207546FFF7F9FFAE4605006946A5
:100B0000534620F00700854618B020B5FFF7C6FB16
:100B1000BDE820404FF000064FF000074FF00008FE
:100B20004FF0000B21F00701AC46ACE8C009ACE87F
:100B3000C009ACE8C009ACE8C0098D46704710B5E3
:100B40000446AFF300802046BDE81040FFF792BB9B
:100B50004FF0013C50F8042B51F8043B9A4221D14C
:100B6000A2EB0C03934313EACC1317D150F8042BD8
:100B700051F8043B9A4215D1A2EB0C03934313EABC
:100B8000CC130BD150F8042B51F8043B9A4209D1F5
:100B9000A2EB0C03934313EACC13DBD04FF000001D
:100BA000704700BFD01A01BAB1FA81F101F0180103
:100BB00022FA01F0CB40C1F12001DBB2C0B2C01A71
:100BC0002CFA01F3D11A914311EAC311E6D170470F
:100BD00001491820ABBEFEE72600020070475FEA1D
:100BE000400C08BF91F0000F4FEA8C234FEAC1225E
:100BF00043EA51514FEA1C5018BF00F5F0404FEA4C
:100C0000300018BF41F000415FEA6C5C00F02980C1
:100C1000BCF1FF3F08BF40F080407047130C06BF97
:100C200012044FF0100C4FF0000C130E04BF120210
:100C30000CF1080C130F04BF12010CF1040C930FFC
:100C400004BF92000CF1020CD30F04BF52000CF150
:100C5000010C11464FF00002A0F11F00A0EB0C00A8
:100C6000704711F0004F08BF704731F000413FF46A
:100C7000D5AF0B0C06BF09044FF0100C4FF0000C61
:100C80000B0E04BF09020CF1080C0B0F04BF090185
:100C90000CF1040C8B0F04BF89000CF1020CCB0F7C
:100CA00004BF49000CF1010CCCF12003A0EB0C00B7
:100CB00022FA03F302FA0CF241EA030100F1010007
:100CC000704720F07F4C80EA030023F07F47ACEBB5
:100CD000070303F57C5300F0004003F1FF032DE907
:100CE00080494FEA154B09B44FEA144325EA0B4EED
:100CF00024EA03480FF2042606EB132749083E783E
:100D00005FEA320203FB0667C7F5000707FB06F63A
:100D10004FEA54374FEAD64606F1020607FB066C47
:100D2000CCF1005C4FEA1C472CEA074C07FB06F4A9
:100D30000CFB06F504EB15464FEA961634BF00206F
:100D40004FF000404FEAD13706FB07FC4FEA1C4C3E
:100D50000CFB0BF7D21B03FB0CF761EB07010CFB41
:100D60000EF7B0EB074072EB17420CFB08F734BFED
:100D7000A2EB0742B2EB074261EB17414FEA0C448A
:100D80004FEA910706FB07FC4FEA1C4C0CFB0BF7E4
:100D9000B0EBC74072EB573203FB0CF734BFA2EB4A
:100DA000C742B2EBC74261EB57310CFB0EF7B0EB19
:100DB000C70072EB57720CFB08F734BFA2EBC702F7
:100DC000B2EBC70261EB5771039F4FEA816141EAC1
:100DD000921104EBCC044FEAD1374FEA826206FB52
:100DE00007FC42EA90124FEA80604FEA1C4C0CFB71
:100DF0000BF7D21B03FB0CF761EB07010CFB0EF7A3
:100E0000B0EB074072EB17420CFB08F734BFA2EBC4
:100E10000742B2EB074261EB17414FEA8C554FEAAC
:100E2000910704EB9C2406FB07FC4FEA1C4C0CFBCF
:100E30000BF7B0EBC74072EB573203FB0CF734BF34
:100E4000A2EBC742B2EBC74261EB57310CFB0EF786
:100E5000B0EBC70072EB57720CFB08F734BFA2EB84
:100E6000C702B2EBC70261EB577115EB4C254FEA95
:100E7000816141EA92114FEA82624FEAD13742EA38
:100E8000901206FB07FC44F100044FEA80604FEA31
:100E90001C4C0CFB0BF7D21B03FB0CF761EB07019F
:100EA0000CFB0EF7B0EB074072EB17420CFB08F798
:100EB00034BFA2EB0742B2EB074261EB174115EBDF
:100EC0001C154FEA813141EA92414FEA823242EAEF
:100ED00090424FEA80304FEA0C7644F1000448EA31
:100EE00003434EEA0B484FF0000EB2EB080C71EBD7
:100EF000030724BF624639464EEB0E0E4FF0000B3F
:100F00000018524149414BEB0B0BB2EB080C71EB53
:100F100003077BF1000B24BF624639464EEB0E0EF1
:100F20004FF0000B0018524149414BEB0B0BB2EB59
:100F3000080C71EB03077BF1000B24BF62463946B6
:100F40004EEB0E0E51EA020718BF46F0010616EBF3
:100F50000E7655F1000254F1000103D5BDE8890178
:100F6000BDE80088BDE88901BDE80048B6195241D6
:100F700041EB0101A3F10103704780807F7E7D7CFE
:100F80007B7A7978777676757473727171706F6E1B
:100F90006E6D6C6C6B6A6A696868676666656464C6
:100FA000636362616160605F5F5E5E5D5D5C5C5B50
:100FB0005B5A5A59595858575756565555555454BF
:100FC000535352525251515050504F4F4F4E4E4D1D
:100FD0004D4D4C4C4C4B4B4B4A4A4A494949484869
:100FE00048474747474646464545454444444443A9
:100FF00043434342424242414141002B9C4630D44C
:1010000077002BD01CB54FEA370703B44FF0100020
:101010004FF01001BAF1000F06D0BCF1000FDCBF99
:1010200040F0080040F008014FF000000FBCBDE8A0
:1010300010400BF1010BBBF1010F08BF5FEA17076E
:1010400022BF12F1010211F101014FF0004143F101
:10105000000300F0004043EA00007047F9D357084E
:10106000D0E746EA064613F1400F4FEA16461FDD69
:1010700013F1200FDFBF16430A46002120335B42E5
:10108000BED0C3F1200746EA064602FA07F74FEA48
:10109000164646EA0706C3F1200722FA03F201FAD0
:1010A00007F721FA03F14FF0000342EA0702A7E72E
:1010B00046EA020646EA06464FEA164646EA0106B0
:1010C000BCBF46EA0646360C4FF000034FF0000264
:1010D0004FF0000194E72DE9804C9A46934670B496
:1010E00091E8380007C831EA400C48BF34EA430CA5
:1010F00003D5FFF7E6FDFFF780FFF0BCBDE8008CED
:101100002DE9804C9A46934670B491E8380007C8A0
:1011100010F0804F08BF13F0804F03D100F005F8A6
:10112000FFF76BFFF0BCBDE8008C20F07F4780EA42
:10113000030023F07F4C07EB0C03A3F57C5300F076
:101140000040A3F1FE0392F0000F00F0B38095F091
:10115000000F00F077802DE901494FEA11404FEA76
:10116000144621EA004800FB06FC24EA064708FB77
:1011700006F607FB08F800FB07F718EB06484CEBF0
:10118000164C4FEA124B18EB07484FEA15464CEB4A
:10119000174022EA0B4E0BFB06FC25EA06470EFB26
:1011A00006F607FB0EFE0BFB07F71EEB064E4CEB9D
:1011B000164C4FF000061EEB074E4CEB174B18EB8E
:1011C0000B0840F1000018EB0E0B58EB000840F143
:1011D00000008F1A4FF000013CBFC943661B14BFCB
:1011E000B5EB040C00213CBFC943F61B4FEA174482
:1011F0004EEA8E0E27EA04454FEA1C4704FB0762BD
:101200002CEA074C05FB07F70CFB05F604FB0CFC6E
:1012100016EB074642EB174216EB0C4642EB1C421C
:101220001BEB060658EB0202414146EA9E0601D539
:10123000BDE80189B619524141EB0101A3F1010357
:10124000BDE801894FEA14454FEA114724EA0546F3
:1012500021EA074C05FB07F406FB07F70CFB06F138
:1012600005FB0CFC11EB074144EB17444FEA124716
:1012700011EB0C4144EB1C4422EA074C05FB07F23E
:1012800006FB07F70CFB06F605FB0CFC16EB074606
:1012900042EB174216EB0C4642EB1C456A1854F120
:1012A000000148BF7047B619524141EB0101A3F15B
:1012B0000103704795F0000F37D04FEA11424FEA13
:1012C000144721EA024624EA074C02FB07F106FB19
:1012D00007F70CFB06F402FB0CFC14EB074441EB94
:1012E00017414FEA154714EB0C4441EB1C4125EA2A
:1012F000074C02FB07F506FB07F70CFB06F602FBA3
:101300000CFC16EB074645EB174516EB0C4645EB78
:101310001C42121951F1000148BF7047B6195241E1
:1013200041EB0101A3F1010370474FEA14454FEA75
:10133000114724EA054621EA074C05FB07F106FBA5
:1013400007F70CFB06F24FF0000605FB0CFC12EB56
:10135000074241EB174112EB0C4251EB1C4148BFD5
:101360007047921841EB0101A3F10103704700009F
:1013700010B50E48006840F080500C4908600B48DA
:101380001038006840F480200849103908600120B6
:1013900001F0D4FC012001F0D7FC00BF04484068F4
:1013A00000F008000028F9D010BD000040380240CD
:1013B0000070004000BFFEE770B502460B464FF6D6
:1013C000FF7000210EE0545C6040002407E000F054
:1013D0000105400815B14AF201067040641C082C52
:1013E000F5DB491C9942EEDB70BD000010B56F497A
:1013F0006F4800F005F96F4800786F4908706F4832
:1014000000786C4908706E48006801280AD10846C7
:1014100000786C496C4A126888546B480068401C1C
:10142000694908606648006801287CD162480078F4
:101430000A28FAD15F4800780D28F6D16248007872
:10144000001FC1B25F48FFF7B7FF00B25F490880D5
:101450005D480068001F5B4901445D4809880180C0
:1014600058480078A12834D156484078012830D116
:101470005648B0F900005649B1F90010884202D030
:1014800002F0F6F979E053484E498978017000205E
:1014900006E051490A18C11C4A4BC95C1170401C36
:1014A0004C4909788842F4DB4C4890ED000AB5EECF
:1014B000C00AF1EE10FA03D1B2EE0E0A80ED000A76
:1014C00002F094F90120464908700020454908704F
:1014D00053E03C480078AC2826D13A4840780128AF
:1014E00022D13A48B0F900003949B1F900108842D8
:1014F00002D002F0D3F940E03B483249D1F8021063
:1015000001603A482F49D1F80610016038482D494A
:10151000D1F80A10016031482A49D1F80E10016053
:1015200002F07AF929E02DE026480078AD2824D190
:1015300024484078012820D12448B0F900002449EB
:10154000B1F90010884202D002F07CF915E0294878
:101550001C49D1F80210016027481A49D1F8061039
:10156000016026481749D1F80A1001601B48154947
:10157000D1F80210016002F023F900201049086040
:10158000114908600E48006850B90B480078AA2835
:1015900006D108480078FF2802D1012008490860D8
:1015A0000121034800F046F810BD0000008800202B
:1015B000886002403C0200203D0200202C020020F6
:1015C00080020020B8030020840200205402002082
:1015D000560200202D020020D20300204C020020E1
:1015E0008802002000000020680200206C02002019
:1015F000700200205C0200206002002064020020D3
:101600000246094B9A4201D2084801E006481038C8
:1016100001F000531BB1064B0B40C36002E0044BCA
:101620000B4083607047000010640240006002407D
:101630007D0F7D0F21B1026842F00102026003E0DC
:10164000026822F001020260704710B501F08003C9
:101650004BB122B1436943F08003436103E0436926
:1016600023F08003436180290BD02AB1036801F085
:101670001E042343036004E0036801F01E04A34337
:10168000036010BD10B500220268134B1A40CC68ED
:101690000B6823434C6923438C692343CC69234360
:1016A0000C6A23434C6A23438C6A23434C6B2343C9
:1016B0008C6B23431A430260426922F00702D1E98E
:1016C0000B3423431A4342610B6943604B688360C8
:1016D0008B68C36010BD00003F801CF070470000A5
:1016E00010B565480078401E6449085C01283BD16C
:1016F000BAEE040A624880ED000A322003F050FE80
:1017000004E0BAEE040A5E4880ED000A5D48007805
:101710000028F6D0BBEE0E0A002001F0C3FFBBEE9E
:101720000E0A012001F0BEFF4FF4FA7003F038FEFC
:101730009FED550A002001F0B5FF9FED530A0120EF
:1017400001F0B0FF9FED500A4D4880ED000A3220B5
:1017500003F026FE04E09FED4C0A494880ED000AA4
:10176000484800780028F6D043480078401E434996
:10177000085C02283CD19FED450A414880ED000AF3
:10178000322003F00DFE04E09FED400A3C4880ED5E
:10179000000A3C4800780028F6D0BBEE0E0A002074
:1017A00001F080FFBBEE0E0A012001F07BFF4FF439
:1017B000FA7003F0F5FD9FED340A002001F072FF8E
:1017C0009FED310A012001F06DFF9FED310A2C4899
:1017D00080ED000A322003F0E3FD04E09FED2C0AC7
:1017E000274880ED000A274800780028F6D042E01C
:1017F00021480078401E2149085C03283BD19FED19
:10180000250A1F4880ED000A322003F0C9FD04E0DC
:101810009FED200A1A4880ED000A1A480078002837
:10182000F6D0BBEE0E0A002001F03CFFBBEE0E0A24
:10183000012001F037FF4FF4FA7003F0B1FD9FED86
:10184000120A002001F02EFF9FED0F0A012001F087
:1018500029FF9FED110A0A4880ED000A322003F0AB
:101860009FFD04E09FED0C0A054880ED000A054845
:1018700000780028F6D010BD2D0200205C03002067
:10188000E00100203003002000000000000048C2FA
:10189000000020C20000B4C20000A0C20EB50121A9
:1018A000042001F021FC4FF400504310314A11464E
:1018B0000090314800F0F4F802220C212D4800F08D
:1018C00073F902220D212B4800F06EF947F23051D6
:1018D000294802F0D9FB0121082001F005FC022073
:1018E0000123264A11460090254800F0D9F802222B
:1018F0000021224800F058F9022201211F4800F07F
:1019000053F947F230511E4802F0BEFB012102207C
:1019100001F0FAFB0121042001F0D6FBC020019068
:1019200002208DF8080003208DF8090000208DF8B2
:101930000A0001208DF80B0001A9124800F0ECF814
:10194000032206210F4800F02FF9032207210D483A
:1019500000F02AF900231A4603210B4802F070FA1E
:1019600000200949243108600121074802F04DFA9E
:101970000EBD0000000C02400008004000000240C4
:10198000000C0040000802400004014070B52DED3D
:101990000C8B05460C46284602F073FA06B2A000EE
:1019A00004F0DFF941EC1A0BA6F5EA40303804F0F8
:1019B000D8F941EC1D0B9FED120B53EC102B04F0EA
:1019C00023FA41EC1C0B9FED100B53EC102B04F091
:1019D0001BFA41EC1B0B53EC1A2B04F03BF841ECC7
:1019E000190B03F051FF08EE100A47F23051284658
:1019F00002F04AFBB0EE480ABDEC0C8B70BD000053
:101A000000000000000021401F85EB51B81E094076
:101A100070B52DED0C8B05460C46284602F031FAC8
:101A200006B2A00004F09DF941EC1A0BA6F5EA41BC
:101A30003039164A127801FB02F004F092F941ECB9
:101A40001D0B9FED130B53EC102B04F0DDF941EC53
:101A50001C0B9FED110B53EC102B04F0D5F941EC4E
:101A60001B0B53EC1A2B03F0F5FF41EC190B03F0A1
:101A70000BFF08EE100A47F23051284602F004FB33
:101A8000B0EE480ABDEC0C8B70BD0000B80200201F
:101A900000000000000021401F85EB51B81E0940E6
:101AA0002DE9F04186B007460C4615461E46DDF886
:101AB0003080049602208DF8140001208DF8170064
:101AC00002208DF8150004A9204600F025F8CDF875
:101AD000108004A9284600F01FF80020ADF80C0083
:101AE000ADF80600ADF804004FF6FF70029001A9B2
:101AF000384602F0CBFA0021384602F0C5FA00233E
:101B00001A460321384602F09BF90121384602F0BB
:101B10007CF906B0BDE8F081F0B50A46002100234B
:101B2000002400BF3DE0012505FA01F3156805EA30
:101B300003049C4234D105684F000326BE40B543E0
:101B4000056015794E00B540066835430560157986
:101B5000012D02D01579022D16D185684F0003267C
:101B6000BE40B543856055794E00B5408668354323
:101B70008560456801268E40B54345604568967985
:101B80008E40B6B235434560C5684F000326BE405F
:101B9000B543C560D5794E00B540C6683543C560CC
:101BA000491C1029BFD3F0BDF0B5002300244D0718
:101BB000ED0E02FA05F3CE1000F1200555F826507F
:101BC0004E07F70E0F26BE40B543CF1000F120069A
:101BD00046F82750CE1000F1200555F8265045EA6A
:101BE0000304CE1000F1200545F82640F0BD024662
:101BF000002013690B400BB1012000E0002070476A
:101C000041837047018370470AB1018300E041833B
:101C1000704700001CB51148007810B910480078D2
:101C20001CBD0020044614E0002007E004EB840102
:101C30000C4A1144095C0DF80010401C0528F5DB26
:101C40006946094802F08CFB08B9E0B2E8E7601C7D
:101C500004463C2CE8DB00BFE2E700000E00002059
:101C60008A000020970000204000002000BFFEE70F
:101C70002DE9F04107460D46164603F029FC38468B
:101C800003F066FC20B903F047FC0020BDE8F081BA
:101C9000002405E0012003F0CBFB2855601CC4B2F2
:101CA000701EA042F6DC002003F0C2FB285503F0B2
:101CB00033FC0120EAE72DE9F04107460D461646C0
:101CC00003F006FC384603F043FC20B903F024FC83
:101CD0000020BDE8F081002409E0285D03F038FC15
:101CE00018B903F019FC0020F3E7601CC4B2B44239
:101CF000F3DB03F011FC0120EBE7000010B5044614
:101D00001CB101200449C87002E000200249C870DB
:101D100000F00AF810BD0000FE02002010B50120FE
:101D200000F0D2F810BD000010B500240EE00B4802
:101D300000784010094908700948005D20B1084644
:101D4000007840F080000870601CC4B2082CEEDB04
:101D5000012202494E20FFF7AEFF10BD060300200E
:101D6000FE0200203EB50121402001F0BDF95320C4
:101D7000ADF800004FF6FF7001906946224802F06E
:101D800085F90121204802F040F8322003F008FBD9
:101D900000F022FA002404E000201C490855601CD1
:101DA000C4B2082CF8DBFFF7BFFF0020174908700A
:101DB000FFF7BAFF002015494870FFF7B5FF032071
:101DC00000F09AF8052003F0EBFA032000F094F8F5
:101DD000012003F0E5FA032000F08EF8012003F063
:101DE000DFFA022000F088F8012003F0D9FA282059
:101DF00000F06AF80C2000F067F80E2000F064F89C
:101E0000012000F061F83EBD00180040FE020020F5
:101E100010B50446012C03D1802000F055F80EE0E7
:101E2000022C03D1C02000F04FF808E0032C03D1AE
:101E3000942000F049F802E0D42000F045F810BDED
:101E400010B5044607E0207820B114F8010B00F02B
:101E50008BF800E000E0F6E700BF10BD08B50120F8
:101E60001849087148718871C871FFF75DFF00203B
:101E700014490870FFF758FF012012494870FFF716
:101E800053FF00BF01200F498870FFF74DFF01226B
:101E900069464F20FFF7ECFE00200A498870FFF7E3
:101EA00043FF012007498870FFF73EFF00200549E6
:101EB0008870FFF739FF9DF8000000F00800002847
:101EC000E0D108BDFE02002010B50446FFF7C6FFB2
:101ED000002008490870FFF727FF002005494870D7
:101EE000FFF722FF201100F007F8204600F004F869
:101EF00010BD0000FE02002010B5044604F00800EA
:101F000018B101201749C87102E000201549C871B5
:101F100004F0040018B101201249887102E0002089
:101F20001049887104F0020018B101200D49487170
:101F300002E000200B49487104F0010018B10120B3
:101F40000849087102E0002006490871012005498E
:101F50008870FFF7E9FE002002498870FFF7E4FE71
:101F600010BD0000FE02002010B50446FFF776FF0A
:101F7000012008490870FFF7D7FE00200549487086
:101F8000FFF7D2FE2011FFF7B7FF2046FFF7B4FF9F
:101F900010BD0000FE02002070B52DED108BB0EEDC
:101FA000408A0446002C7DD17E48006804F056F932
:101FB00041EC1C0B7C4890ED000ABFEE001AC1EE0C
:101FC000000A7A4890ED000A20EE800A10EE105ABE
:101FD000284604F043F941EC1E0BB0EE4E0AF0EE39
:101FE0006E0A02F081FFB0EE40DAF0EE60DA53ECF8
:101FF0001C2B51EC1D0B03F007FF41EC1A0B6C4836
:10200000006804F02BF941EC1C0B6748D0ED000A86
:10201000BFEE001A81EE200A6448D0ED000A20EEDF
:10202000200A10EE105A284604F018F941EC1F0B54
:10203000B0EE4F0AF0EE6F0A02F056FFB0EE40EA43
:10204000F0EE60EA9FED5B0B53EC102B51EC1E0B96
:1020500004F00EF841EC1D0B53EC1C2B03F0D4FEE6
:1020600041EC1B0B53EC1A2B03F040FC41EC190B19
:1020700003F00AFC514908604A4890ED000A5048B4
:1020800080ED000A084690ED000A464880ED000AFF
:10209000474880ED008A084690ED000ABDEC108BA1
:1020A00070BDFFE7012C7BD14648006804F0D6F8EC
:1020B00041EC1C0B3C48D0ED000ABFEE001A81EE4B
:1020C000200A3A48D0ED000A20EE200A10EE105AFD
:1020D000284604F0C3F841EC1E0BB0EE4E0AF0EEB9
:1020E0006E0A02F001FFB0EE40DAF0EE60DA53EC77
:1020F0001C2B51EC1D0B03F087FE41EC1A0B3248F0
:10210000006804F0ABF841EC1C0B2748D0ED000A46
:10211000BFEE001A81EE200A2448D0ED000A20EE1E
:10212000200A10EE105A284604F098F841EC1F0BD4
:10213000B0EE4F0AF0EE6F0A02F0D6FEB0EE40EAC3
:10214000F0EE60EA9FED1B0B53EC102B51EC1E0BD5
:1021500003F08EFF41EC1D0B53EC1C2B03F054FEDF
:1021600041EC1B0B53EC1A2B03F0C0FB41EC190B99
:1021700003F08AFB15490860124890ED000A1448E4
:1021800080ED000A084690ED000A0E4880ED000A36
:102190000D4880ED008A084690ED000A7EE7FFE7D3
:1021A00000BF7BE7E4020020CC020020D002002028
:1021B000E0020020000000000000F03FBC02002010
:1021C000E8020020D8020020D4020020C40200202F
:1021D000DC02002000BFFEE710B503F005F910BDDA
:1021E0007047000070B5002100230F22C4781CB393
:1021F000174C246804F4E064C4F5E064C4F30721D8
:10220000C1F10404E3B20A4144789C40E1B284780D
:10221000144021430C07210E0E4C057861550478BB
:1022200004F01F050124AC4005786D11AD0005F1E7
:10223000E025C5F8004109E0047804F01F050124F9
:10224000AC40054D0678761145F8264070BD00007B
:102250000CED00E000E400E080E100E010B52DEDC1
:102260000E8BB0EE408AF0EE608A9FED610A38EE88
:10227000400AB4EEE80AF1EE10FA15D89FED5C0AB8
:1022800038EE000AB4EEE80AF1EE10FA0CDB9FED2E
:10229000590A594880ED060A9FED560A80ED070A53
:1022A00001205649087075E000205449087038EE46
:1022B000680A514880ED030A90ED030AD0ED040A44
:1022C000B0EE001A01EE600AD0ED050A30EE200AE9
:1022D0004B48D0ED000A20EE200A4748D0ED080A0E
:1022E00080EE201A11EE104A204603F0B7FF41ECB1
:1022F0001A0B414890ED030AD0ED040A30EE200A93
:10230000D0ED080A3F4890ED001A60EE810A20EEF9
:10231000200A10EE101A084603F0A0FF41EC1E0B35
:102320009FED390B53EC102B03F06EFD41EC1C0BB1
:10233000314890ED030AD0ED040A70EE600A90ED8A
:10234000070A334890ED001A01EE200A10EE101A29
:10235000084603F083FF41EC1D0B53EC1C2B03F0EC
:10236000C5FA41EC1B0B53EC1A2B03F0BFFA41ECFE
:10237000190B03F089FA20498861084690ED060A96
:1023800080ED070A90ED040A80ED050A90ED030A3E
:1023900080ED040A184890ED060ADFED1E0AB4EE3F
:1023A000E00AF1EE10FA04DB9FED1A0A80ED060A4E
:1023B0000DE0114890ED060ADFED170AB4EEE00AD1
:1023C000F1EE10FA03D89FED140A80ED060A0A48D0
:1023D00090ED060AF0EE000A80EE201AB0EE419A67
:1023E000B0EE490A022001F05DF9BDEC0E8B10BD84
:1023F000CDCCCC3E00000000700400203003002053
:102400007C02002078020020000000000000E03F75
:10241000740200200000C8420000C8C2B0EE080AE2
:102420005B4880ED000AB1EE000A80ED010A9FEDE5
:10243000590A80ED020A9FED580A80ED080A9FEDC7
:10244000570A80ED030A9FED550A80ED040A9FEDBF
:10245000530A80ED050A9FED510A80ED060A9FEDB3
:102460004F0A80ED070A9FED4E0A4E4880ED000AA4
:102470009FED4D0A80ED010A9FED4C0A80ED020AA6
:102480009FED450A80ED080A9FED440A80ED030A9E
:102490009FED420A80ED040A9FED400A80ED050A97
:1024A0009FED3E0A80ED060A9FED3C0A80ED070A8B
:1024B000B0EE000A3E4880ED000AB0EE000A80ED62
:1024C000010A9FED340A80ED020A9FED330A80ED88
:1024D000080A9FED320A80ED030A9FED300A80ED75
:1024E000040A9FED2E0A80ED050A9FED2C0A80ED6F
:1024F000060A9FED2A0A80ED070AB0EE080A2D4869
:1025000080ED000AB1EE000A80ED010A9FED210A7C
:1025100080ED020A9FED200A80ED080A9FED1F0A58
:1025200080ED030A9FED1D0A80ED040A9FED1B0A52
:1025300080ED050A9FED190A80ED060A9FED170A46
:1025400080ED070AB0EE080A1B4880ED000AB1EEE4
:10255000000A80ED010A9FED0F0A80ED020A9FED4F
:102560000E0A80ED080A9FED0D0A80ED030A9FED2B
:102570000B0A80ED040A9FED090A80ED050A9FED24
:10258000070A80ED060A9FED050A80ED070A7047ED
:10259000280400208FC2753C0AD7233C00000000AD
:1025A0006F12033B4C040020CDCC4C3ECDCCCC3D37
:1025B0007004002094040020B804002070B52DEDB4
:1025C0000C8BB0EE409AB0EE608A5048007828B983
:1025D0009FED4F0A4F4880ED000A94E04B48007889
:1025E00001287DD19FED4C0A39EE400ABDEEC00AAC
:1025F000F0EE408A494890ED000AF8EEE80A20EE35
:10260000200AF8EEE80A434890ED001A70EEC10A7D
:10261000434890ED001A01EE200ABDEEC00A10EE0C
:10262000104AB8EEE80A3B4880ED000A00EE104A76
:10263000B8EEC00AB4EEC80AF1EE10FA04DDBDEE41
:10264000C80A10EE104A10E000EE104AB8EEC00AB8
:10265000F1EE480AB4EEE00AF1EE10FA05D2B1EE5E
:10266000480ABDEEC00A10EE104A204603F079FB7E
:1026700041EC1D0B9FED2B0B53EC102B03F0EAF9F3
:1026800041EC1B0BB0EE000A38EE000A10EE101AF7
:10269000084603F0E3FD41EC1C0B53EC1B2B03F04D
:1026A00025F941EC1A0B03F02DFB0546204603F0FB
:1026B00058FB41EC1D0B9FED1B0B53EC102B03F053
:1026C000C9F941EC1B0B18EE100A03F0C7FD41ECF1
:1026D0001C0B53EC1B2B03F0D7FC41EC1A0B00E056
:1026E00011E003F00FFB064600EE106AB8EEC00AD8
:1026F000002000F0D7FF00EE105AB8EEC00A01200B
:1027000000F0D0FF00BFBDEC0C8B70BD0D000020B1
:10271000000000003803002000007A445C02002022
:10272000640200209A9999999999F93F10B52DED75
:102730000E8BB0EE408AF0EE608A5C48007848B9B3
:102740009FED5B0A5B4880ED060A9FED590A80ED1C
:10275000070AA7E038EE680A564880ED030A90EDB4
:10276000080A10EE101A084603F078FD41EC1C0B25
:10277000504890ED030AD0ED040AB0EE001A01EEC5
:10278000600AD0ED050A30EE200A10EE101A084655
:1027900003F064FD41EC1E0B9FED470B53EC102B37
:1027A00003F032FB41EC1D0B53EC1C2B03F052F9F0
:1027B00041EC1A0B3F4890ED030AD0ED040A30EECD
:1027C000200AD0ED080AB0EE001A60EE810A20EE71
:1027D000200A10EE101A084603F040FD41EC1E0BD3
:1027E0009FED370B53EC102B03F00EFB41EC1C0B51
:1027F000304890ED030AD0ED040A70EE600A90EDC7
:10280000070AB0EE001A01EE200A10EE101A084670
:1028100003F024FD41EC1D0B53EC1C2B03F066F878
:1028200041EC1B0B53EC1A2B03F060F841EC190B35
:1028300003F02AF81F498861084690ED060A80EDEA
:10284000070A90ED040A80ED050A90ED030A80ED79
:10285000040A90ED060ADFED1C0AB4EEE00AF1EE80
:1028600010FA04DB9FED180A80ED060A0DE011480E
:1028700090ED060ADFED150AB4EEE00AF1EE10FA6B
:1028800003D89FED120A80ED060A9FED090A002089
:1028900000F008FF0748D0ED060AB0EE600A0120FC
:1028A00000F000FFBDEC0E8B10BD00000200002008
:1028B0000000000094040020B81E85EB51B88E3F44
:1028C000000000000000E03F0000C8420000C8C255
:1028D00010B52DED0E8BB0EE408AF0EE608A5C48AC
:1028E000007848B99FED5B0A5B4880ED060A9FEDD2
:1028F000590A80ED070AA7E038EE680A564880EDCD
:10290000030A90ED080A10EE101A084603F0A6FC20
:1029100041EC1C0B504890ED030AD0ED040AB0EED8
:10292000001A01EE600AD0ED050A30EE200A10EE22
:10293000101A084603F092FC41EC1E0B9FED470B6A
:1029400053EC102B03F060FA41EC1D0B53EC1C2BE5
:1029500003F080F841EC1A0B3F4890ED030AD0EDEC
:10296000040A30EE200AD0ED080AB0EE001A60EE3C
:10297000810A20EE200A10EE101A084603F06EFCC1
:1029800041EC1E0B9FED370B53EC102B03F03CFA80
:1029900041EC1C0B304890ED030AD0ED040A70EEB8
:1029A000600A90ED070AB0EE001A01EE200A10EE60
:1029B000101A084603F052FC41EC1D0B53EC1C2B83
:1029C00002F094FF41EC1B0B53EC1A2B02F08EFF2C
:1029D00041EC190B02F058FF1F498861084690ED41
:1029E000060A80ED070A90ED040A80ED050A90EDD5
:1029F000030A80ED040A90ED060ADFED1C0AB4EE2E
:102A0000E00AF1EE10FA04DB9FED180A80ED060AE9
:102A10000DE0114890ED060ADFED150AB4EEE00A6C
:102A2000F1EE10FA03D89FED120A80ED060A9FED31
:102A3000090A012000F036FE0748D0ED060AB0EE84
:102A4000600A002000F02EFEBDEC0E8B10BD0000D1
:102A50000100002000000000B8040020B81E85EB33
:102A600051B88E3F000000000000E03F0000C84267
:102A70000000C8C210B52DED0E8BB0EE408AF0EE0E
:102A8000608A5248007868B99FED510A514880ED3C
:102A9000060A9FED4F0A80ED070A9FED4D0ABDEC37
:102AA0000E8B10BD38EE680A4A4880ED030A90ED9F
:102AB000030AD0ED040AB0EE001A01EE600AD0ED70
:102AC000050A30EE200A4448D0ED000A20EE200A24
:102AD0004048D0ED080A80EE201A11EE104A204638
:102AE00003F0BCFB41EC1A0B3A4890ED030AD0ED21
:102AF000040A30EE200AD0ED080A384890ED001A9A
:102B000060EE810A20EE200A10EE101A084603F04B
:102B1000A5FB41EC1E0B9FED320B53EC102B03F089
:102B200073F941EC1C0B2B4890ED030AD0ED040A1D
:102B300070EE600A90ED070A2B4890ED001A01EE46
:102B4000200A10EE101A084603F088FB41EC1D0B1A
:102B500053EC1C2B02F0CAFE41EC1B0B53EC1A2B5E
:102B600002F0C4FE41EC190B02F08EFE1949886197
:102B7000084690ED060A80ED070A90ED040A80ED04
:102B8000050A90ED030A80ED040A90ED060ADFEDD8
:102B9000170AB4EEE00AF1EE10FA04DB9FED130A17
:102BA00080ED060A0DE00B4890ED060ADFED100AF5
:102BB000B4EEE00AF1EE10FA03D89FED0D0A80EDB5
:102BC000060A044890ED060A69E700000D0000209F
:102BD0000000000028040020700200206C02002089
:102BE000000000000000E03F680200200000C84232
:102BF0000000C8C210B50121022000F075FA00F0F3
:102C00000BF89FED030A034800F03CF810BD0000EC
:102C100000409C46000400401FB531200290022075
:102C20008DF80C0000208DF80E0001208DF80F00AB
:102C300003208DF80D0002A91148FEF76DFF022256
:102C400004210F48FEF7B0FF022205210C48FEF7D1
:102C5000ABFF022200210A48FEF7A6FFC220009027
:102C600001208DF8040000208DF8060002208DF868
:102C700007008DF8050069460148FEF74DFF1FBDAE
:102C80000004024070B52DED028B8CB00546B0EE0D
:102C9000408A0026002408A800F046FA0998400857
:102CA0002549B0FBF1F0441E0998400800EE100AD7
:102CB000F8EE400A601C00EE100AB8EE400A20EE62
:102CC000081A80EE810AF7EE000A30EE600ABCEEC8
:102CD000C00A10EE106A0020ADF81C00ADF8160016
:102CE000A0B2ADF81400069605A9284601F0CEF969
:102CF0006020ADF800000020ADF80C000120ADF818
:102D00000200002002906946284601F0D7F8694683
:102D1000284601F011F96946284601F05FF90121C2
:102D2000284601F07EF80121284601F06EF80CB02B
:102D3000BDEC028B70BD000080841E00014908625A
:102D40007047000000000E42014908607047000013
:102D5000A4000E427047000010B561484078012879
:102D60003CD19FED600A604880ED000A322002F0FD
:102D700017FB04E09FED5B0A5B4880ED000A5B48AF
:102D800000780028F6D0BBEE0E0A002000F08AFC86
:102D9000BBEE0E0A012000F085FC4FF4FA7002F041
:102DA000FFFA9FED500A002000F07CFC9FED4D0AD9
:102DB000012000F077FCBAEE040A4B4880ED000ACF
:102DC000322002F0EDFA04E0BAEE040A464880ED43
:102DD000000A464800780028F6D080E04048407855
:102DE00002283CD19FED420A3F4880ED000A322084
:102DF00002F0D6FA04E09FED3E0A3B4880ED000A5F
:102E00003A4800780028F6D0BBEE0E0A002000F009
:102E100049FCBBEE0E0A012000F044FC4FF4FA70AE
:102E200002F0BEFA9FED2F0A002000F03BFC9FED60
:102E30002D0A012000F036FC9FED2E0A2A4880ED75
:102E4000000A322002F0ACFA04E09FED2A0A26487C
:102E500080ED000A254800780028F6D03FE02048A1
:102E6000407803283BD19FED240A1F4880ED000ADB
:102E7000322002F095FA04E09FED1F0A1A4880ED17
:102E8000000A1A4800780028F6D0BBEE0E0A00208F
:102E900000F008FCBBEE0E0A012000F003FC4FF42A
:102EA000FA7002F07DFA9FED0F0A002000F0FAFBA5
:102EB0009FED0C0A012000F0F5FB9FED100A0A4877
:102EC00080ED000A322002F06BFA04E09FED0B0A5D
:102ED000054880ED000A054800780028F6D010BDAE
:102EE0005C03002000000000E0010020300300200F
:102EF000000020C2000048C20000A0C20000B4C20E
:102F000070B52DED028B05460C46284600F0B9FF42
:102F100000B208EE100AB8EEC80AF1EE000A60EE40
:102F2000200AA00000EE100AB8EEC00A80EE801A57
:102F3000F0EE418A0021284601F0A6F8B0EE680ABA
:102F4000BDEC028B70BD00001CB58F2000900020EE
:102F50008DF804008DF8070069460248FEF7DCFD95
:102F60001CBD0000000C02401CB58F200090012009
:102F70008DF8040000208DF8070002208DF8050070
:102F800069460248FEF7C8FD1CBD0000000C024067
:102F900070B586B00646002007E04FF47A7103AAA8
:102FA00022F810102DF81010401C0528F5DBFFF753
:102FB000DBFF01228F211A48FEF726FE0025FFF7CE
:102FC000C3FF00201749086001211648243800F08B
:102FD0001CFF1FE01348006885B2002413E012486C
:102FE00030F814100E48FEF702FE58B903A830F866
:102FF0001400A84206DD03A820F8145030F814008D
:1030000026F81400641C052CE9DB0121054824384E
:1030100000F0FBFEB5F57A7FDCDB06B070BD00008A
:10302000000C024024140040F0020020FEB50446CB
:103030004FF47A7700256846FFF7AAFF00200CE0DE
:103040003DF81010A94201DD3DF810503DF8101078
:10305000B94201DA3DF81070401C0528F0DBE81B8E
:1030600086B200200FE006EBD672A5EB62023DF8B7
:1030700010309A4203DA012124F8101002E00021F6
:1030800024F81010401C0528EDDB20884FF4FA616D
:103090004843618801EB4102C2EBC11100EB011012
:1030A000A18801EB4102C2EBC11100EBC1006188B4
:1030B000A2881144E28811442289114422881144D3
:1030C00090FBF1F080B2FEBD29B1064A12680243BE
:1030D000044B1A6004E0034A12688243014B1A60F1
:1030E000704700003038024029B1064A1268024396
:1030F000044B1A6004E0034A12688243014B1A60D1
:10310000704700004038024029B1064A1268024365
:10311000044B1A6004E0034A12688243014B1A60B0
:103120007047000044380240F0B50021002200241E
:10313000022500260223324F3F6807F00C0121B11F
:10314000042905D0082937D105E02E4F076036E065
:103150002D4F076033E02A4F3F1F3F68C7F380566B
:10316000274F3F1F3F6807F03F036EB1264FB7FB65
:10317000F3F7DFF88CC0ACF1040CDCF800C0CCF342
:10318000881C07FB0CF40CE01E4FB7FBF3F7DFF8CD
:1031900070C0ACF1040CDCF800C0CCF3881C07FB59
:1031A0000CF4174F3F1F3F68C7F301477F1C7D009A
:1031B000B4FBF5F7076002E0124F076000BF00BFE5
:1031C0000F4F3F6807F0F0010909104F7A5C07685C
:1031D000D74047600A4F3F6807F4E051890A0B4F18
:1031E0007A5C4768D7408760054F3F6807F46041C5
:1031F000490B064F7A5C4768D740C760F0BD0000B6
:10320000083802400024F40000127A001C0200205A
:1032100010B500203A4908700846007810B900201F
:10322000384908709FED380A384880ED000A9FED54
:10323000360A374880ED000A47F23051354800F031
:1032400023FF47F23051344800F01EFF9FED2E0A55
:10325000002000F027FA9FED2C0A012000F022FA4E
:103260004FF47A7002F09CF89FED2C0A002000F0D9
:1032700019FA9FED2B0A012000F014FA1AE040F22F
:103280006B112448FEF782FB2048D0ED000A30EE97
:10329000200A80ED000A40F26B111F48FEF776FB12
:1032A0001B48D0ED000A30EE200A80ED000A012014
:1032B00002F076F8154890ED000AF3EE080AB4EE35
:1032C000E00AF1EE10FADAD3114890ED000AFBEEB5
:1032D000080AB4EEE00AF1EE10FAD0DC9FED0A0A1B
:1032E000002000F0DFF99FED080A012000F0DAF974
:1032F000FA2002F055F801200149087010BD0000C5
:103300000D0000200E00002000000000E801002059
:10331000E4010020000C004000080040000028C22A
:103320000000184270B5FEF775FCD5490870D54805
:10333000007850282DD108460078D3490978884272
:1033400027D1FFF765FFD1480078532803D14E20DD
:10335000CE49087016E0CD4800784E2803D153209E
:10336000CA4908700EE0C9480078572803D14520A3
:10337000C649087006E0C5480078452802D15720A4
:10338000C249087000F016FBFFF7E6FC0120C049B7
:1033900008700024022008E0BA49095CB84A127893
:1033A000914201D1044605E0401CBA490978891EC2
:1033B0008142F1DC00BFB349601C0D5C4E2D0AD088
:1033C00004DC452D78D0472D77D10AE1532D43D029
:1033D000572DF9D183E0AD48007845282BD04E28F1
:1033E00004D0532809D0572834D115E00120A8492A
:1033F00008704E20A54908702CE0FFF709FF4E2009
:10340000A2490870A44890ED000AF1EE0C0A30EED3
:10341000200A80ED000A1DE001F0A4FB4E209B492C
:1034200008709D4890ED000AF1EE0C0A30EE200A7B
:1034300080ED000A0EE001F03DFB4E20934908703C
:10344000954890ED000AF1EE0C0A30EE200A80ED6E
:10345000000A00BF00BF10E18C48007845282DD03D
:103460004E2804D0532811D0572836D115E0FFF745
:10347000CFFE532085490870874890ED000AF1EE91
:103480000C0A30EE200A80ED000A26E00120804977
:10349000087053207D4908701FE001F00BFB53209A
:1034A0007A4908707C4890ED000AF1EE0C0A30EE83
:1034B000200A80ED000A10E052E0DAE001F052FB51
:1034C000532072490870744890ED000AF1EE0C0A1E
:1034D00030EE200A80ED000A00BF00BFCDE06B484F
:1034E000007845282BD04E2804D0532811D05728D7
:1034F00034D11DE001F0DEFA5720644908706648B7
:1035000090ED000AF1EE0C0A30EE200A80ED000A80
:1035100024E001F027FB57205C4908705E4890EDDD
:10352000000AF1EE0C0A30EE200A80ED000A15E0E8
:103530000120574908705720544908700EE0FFF7E2
:1035400067FE572051490870534890ED000AF1EE8C
:103550000C0A30EE200A80ED000A00BF00BF8CE0AC
:103560004A480078452833D04E2804D0532811D03B
:10357000572834D11DE001F0F5FA45204349087081
:10358000454890ED000AF1EE0C0A30EE200A80ED7D
:10359000000A24E001F08EFA45203C4908703E48BC
:1035A00090ED000AF1EE0C0A30EE200A80ED000AE0
:1035B00015E0FFF72DFE452034490870364890EDA0
:1035C000000AF1EE0C0A30EE200A80ED000A06E057
:1035D00001202F49087045202C49087000BF00BF0A
:1035E0004BE02C480078801E2649085C4E2809D103
:1035F00000F0E0F9224800782349087001202749AB
:10360000087032E023480078801E1E49085C442878
:103610002BD100F0CFF9FFF7FBFD1C4800785328B1
:1036200003D14E201949087016E0184800784E283A
:1036300003D15320154908700EE01448007857282C
:1036400003D145201149087006E01048007845284C
:1036500002D157200D49087000F0ACF9FEF740F890
:1036600000F0A8F902200D49087001200C490870EB
:1036700003E001200649087000BF00BF70BD0000D4
:103680008A0000205C0300208C0000208D000020B8
:103690000D0000202D0200209000002000000020DE
:1036A0000C00002070B52DED028B0546B0EE408A6F
:1036B0009FED290AB4EEC08AF1EE10FA04DB9FED0B
:1036C000260AB0EE408A0AE09FED240AB4EEC08AD2
:1036D000F1EE10FA03D89FED210AB0EE408AB5EE64
:1036E000C08AF1EE10FA01DB002406E001249FED10
:1036F0001A0A38EE000AB0EE408A65B9BCEEC80A74
:1037000010EE101A164800F0B9FCE2B2402115483C
:10371000FEF77AFA1CE0012D0CD1BCEEC80A10EEBF
:10372000101A0F4800F0ACFCE2B280210D48FEF701
:103730006BFA0DE0022D0BD1BCEEC80A10EE101A88
:10374000074800F09FFCE2B202210648FEF75CFA4F
:10375000BDEC028B70BD00000000C8420000C8C272
:10376000000400400004024010B50022028802F468
:1037700041520B884C8823438C882343CC882343B5
:103780000C8923434C8923438C892343CC892343CD
:103790001A430280838B4FF2FF74234083830B8A8A
:1037A000038210BD0021018041808180C1800181A0
:1037B00041818181C18107210182704770470000EA
:1037C00010B54FF6AA7008490880C2208870012001
:1037D000C8704120087140F60D20A1F805000721AE
:1037E000014801F0C1FA10BD9002002010B54FF65B
:1037F000AA7008490880C32088700120C870412041
:10380000087140F60D20A1F805000721014801F0DC
:10381000ABFA10BD9702002010B54FF6AA70084908
:103820000880C12088700120C8704120087140F6CE
:103830000D20A1F805000721014801F095FA10BDFF
:103840008902002010B54FF6AA7008490880D120DF
:1038500088700120C8704E20087140F60D20A1F834
:1038600005000721014801F07FFA10BDA5020020E4
:1038700010B54FF6AA7008490880D2208870012040
:10388000C8704E20087140F60D20A1F805000721F0
:10389000014801F069FA10BDAC02002010B54FF6E6
:1038A000AA7008490880D02088700120C8704E2076
:1038B000087140F60D20A1F805000721014801F02C
:1038C00053FA10BD9E0200200CB50020019000901C
:1038D0003448006840F480303249086000BF314805
:1038E000006800F4003000900198401C019000989E
:1038F00018B90198B0F5A04FF1D12A48006800F43A
:10390000003010B10120009001E0002000900098EC
:10391000012846D123484030006840F080502149BA
:10392000403108602048006840F440401E4908606B
:103930001C48083000681B490831086008460068C8
:1039400040F4004008600846006840F4A050086059
:103950001648091F0860081F006840F08070091FA2
:10396000086000BF0F48006800F000700028F9D020
:1039700040F205700E4908600A480830006820F0DF
:1039800003000849083108600846006840F002005A
:10399000086000BF03480830006800F00C000828E9
:1039A000F8D10CBD003802400070004008544007B8
:1039B000003C024010B50020054908709FED050A43
:1039C000FFF770FE9FED030A0120FFF76BFE10BDAD
:1039D0000D00002000000000012004490860044898
:1039E0000068401C0249086070470000180200206F
:1039F0001402002010B51548006840F47000134907
:103A000008601348006840F0010011490860002078
:103A10000F49083108600E4800680E4908400C49FB
:103A200008600D48091D0860081F006820F4802008
:103A3000091F0860002006490C310860FFF744FFA9
:103A40004FF0006001498039086010BD88ED00E04A
:103A500000380240FFFFF6FE103000241FB50121A0
:103A60000846FFF741FB42F2CF00ADF8040040F2F8
:103A7000E73002900020ADF80C00ADF8060001A977
:103A80004FF0804000F002FB01221146900700F049
:103A90000CFA0121880700F0B8F91C208DF800000D
:103AA00001208DF801008DF802008DF803006846B2
:103AB000FEF798FB1FBD000010B50121880700F03C
:103AC000E3F9002861D04FF6AA7030490880A020A1
:103AD00088700120C8702E48006848602D48008812
:103AE00000EE100AB8EE400A10EE100A88602A486C
:103AF0000078087329480078487329480068C1F89D
:103B00000E0040F60D2048821421204801F02CF9C7
:103B100024480078012818D123480078A8B9322019
:103B200001F03EFC4FF6AA7020490880E020887022
:103B30000120C8704320087140F60D20A1F805004F
:103B400007211A4801F010F91BE0164800780228F6
:103B500017D115480078A0B9322001F021FC4FF6AA
:103B6000AA7012490880E12088700120C8704320A3
:103B7000087140F60D20A1F8050007210B4801F05F
:103B8000F3F80121880700F03DF910BDA4030020DF
:103B90005C000020640000208A0000208D000020CE
:103BA000900000200000002088020020F801002082
:103BB00010B54FF6FE70434908824FF4BB7142487E
:103BC000FFF79EF94148D0ED000A30EE200A80ED63
:103BD000000AD0ED000A3E4890ED000AFEF73EFBD9
:103BE00040F26B113B48FDF713FF3B4880ED000AA4
:103BF0000020394991ED000AFEF7CEF9374880EDF3
:103C0000000A3748007801280DD1334890ED000AAA
:103C1000DFED340A80EE201A334890ED000A31EED1
:103C2000000A80ED000A40F26B113048FDF7F0FE0B
:103C30002F4880ED000A01202D4991ED000AFEF782
:103C4000ABF92C4880ED000A244890ED000A294881
:103C5000D0ED000A30EE200AF0EE000A80EE201AC5
:103C6000254880ED001AD0ED000A9FED240AFEF7EA
:103C70005DFD2148D0ED000AB3EE0E0AFEF728FEE6
:103C80001D48D0ED000A1E4890ED000AFEF7F2FE36
:103C90001C4880ED000AD0ED000A1B48008800EEA9
:103CA000100AB8EE400AFEF789FC3620002807DB30
:103CB00000F01F0201219140144A430942F82310E9
:103CC00000BF10BD001000400004014008000020AB
:103CD000E001002000080040480000204C000020C7
:103CE0000D0000200000C84290000020000C0040A1
:103CF00050000020540000205C0000200000204202
:103D00004C020020340000206400002080E200E02B
:103D1000362000280DDB00BF00BF00F01F0201218C
:103D200091404209920002F1E022C2F8001100BF66
:103D300000BF00BF2448006840F00100224908602D
:103D4000081D006840F00100091D08601E480C3085
:103D5000006820F001001C490C310860081F006851
:103D600040F00100091F08601848006840F010008A
:103D7000164908601648008840F001001449088080
:103D80000846008820F0020008800846008840F0BD
:103D9000040008800846008820F0080008800846D3
:103DA000008820F0800008800846808940F00100EB
:103DB00088810846808A40F00100888242F2CF0064
:103DC00008856320C8627047003C014040380240CB
:103DD000001000400EB501212020FFF785F9A72033
:103DE000ADF800004FF6FF7001900020ADF808001C
:103DF000ADF802006946024800F048F90EBD000027
:103E000000140040CA430282704721B1028842F088
:103E10000102028004E002884FF6FE731A4002801D
:103E2000704731B1B0F8442042F40042A0F8442079
:103E300005E0B0F84420C2F30E02A0F84420704719
:103E4000F0B50C4615461E460021002200230189CC
:103E5000028B038C4FF6F877394021434FF6FC472D
:103E60003A4040F201173A434FF6DD773B404FF6B8
:103E7000FF7707EA06172F433B4301810283038440
:103E8000F0BD0146486A704730B502460020002365
:103E90000024158A05EA0103958905EA010413B196
:103EA0000CB1012000E0002030BD1AB183890B4322
:103EB000838102E083898B438381704770B500243E
:103EC00000220023058C4FF6FE7635400584028CD7
:103ED0008388048B4FF68F752C40B51E2C400D88BF
:103EE0002C43751E2A408D892A434D882A43104D44
:103EF000A84202D00F4DA84213D14FF6F7752A40C1
:103F0000CD892A434FF6FB752A408D882A434FF608
:103F1000FF652B404FF6FF552B400D8A2B434D8AF2
:103F20002B43838004838D684563028470BD000049
:103F3000000001400004014070B50024002200236D
:103F4000058C4FF6EF7635400584028C8388048B10
:103F500048F6FF752C404FF6FF452C400D884FF674
:103F6000FF7606EA05252C434FF6DF752A408D893A
:103F700006EA05152A434D8806EA05152A43154D1C
:103F8000A84202D0144DA8421DD14FF67F752A4099
:103F9000CD894FF6FF7606EA05152A434FF6BF7521
:103FA0002A408D8806EA05152A434FF6FF352B4037
:103FB0004FF2FF752B400D8A06EA85052B434D8A8B
:103FC00006EA85052B43838004838D68856302841C
:103FD00070BD0000000001400004014070B50024E5
:103FE00000220023058C4FF6FF6635400584028CC5
:103FF0008388848B4FF68F752C404FF6FC752C40D0
:104000000D882C434FF6FF552A408D894FF6FF76D9
:1040100006EA05252A434D8806EA05252A43154D5B
:10402000A84202D0144DA8421DD14FF2FF752A407C
:10403000CD894FF6FF7606EA05252A434FF6FF3570
:104040002A408D8806EA05252A434EF6FF752B4047
:104050004DF6FF752B400D8A06EA05152B434D8A58
:1040600006EA05152B43838084838D68C56302842B
:1040700070BD000000000140000401404163704732
:1040800081637047C16370474162704700220288B4
:10409000184B98420ED0184B98420BD0B0F1804F7D
:1040A00008D0164B984205D0154B984202D0154BBC
:1040B000984204D14FF68F731A404B881A43124B23
:1040C000984207D0114B984204D04FF6FF431A4054
:1040D0000B891A4302804B68C3620B880385054B2A
:1040E000984202D0044B984201D18B7A0386012377
:1040F000838270470000014000040140000400403A
:1041000000080040000C0040001000400014004077
:1041100001464FF40030081AC0F38F2070470000AA
:1041200000B502461046FFF7F3FF012101FA00F047
:104130000249096808430149086000BD303802405F
:104140002DE9F04304460E461546DDE90789204671
:10415000FFF7DEFFC7B2002243E00120904030406D
:1041600000B93CE0214830F8170001219140084394
:104170001E4921F81700E0684FEA420C032101FABA
:104180000CF18843510008FA01F10843E06020680F
:104190004FEA420C032101FA0CF18843510005FA61
:1041A00001F108432060012D01D0022D16D1616874
:1041B0000120904080B221EA000003FA02F189B2A6
:1041C00008436060A0684FEA420C032101FA0CF139
:1041D0008843510009FA01F10843A06000BF501C58
:1041E000C2B2102AB9DBBDE8F08300001004002041
:1041F0002DE9FC4705460E4617469846DDE90A9A22
:104200000EB9BDE8FC872846FFF78AFF00241AE0B4
:104210000120A040304000B914E0E10805F1200081
:1042200050F821006107CA0E0F21914088436107B1
:10423000C90E0AFA01F10843E20805F1200141F82C
:10424000220000BF641C102CE2D33B460222314600
:104250002846CDE90089FFF773FF00BFD1E710B50D
:10426000142000F0EFF8044604F0030018B903210D
:10427000142000F024F910BD2DE9FC41044600276C
:1042800000210D2000F0BEF99320207020206070E6
:1042900001A823460222214600900C2000F01CF9C0
:1042A00006465EB9002503E0605D4740681CC5B264
:1042B000042DF9DB605DB84200D002263046BDE82F
:1042C000FC812DE9F041074688461546042105206A
:1042D00000F039F880210A2000F0F1F8002405E010
:1042E000395D092000F08EF9601CC4B24445F7DB4B
:1042F0000321012000F086F9FF2400BF052000F013
:10430000A1F80646601EC4B21CB106F004000028E5
:10431000F4D0222000F096F82870212000F092F8C6
:104320006870BDE8F08170B504462146262000F093
:10433000A7F805461DB92046FFF79EFF054600F089
:1043400020F8284670BD70B505460C46284600F09A
:1043500079F820EA04063146284600F053F970BD8A
:1043600010B502460B46002107E0505C5C5CA042A1
:1043700001D0022010BD481CC1B20529F5DB002088
:10438000F8E70EB550208DF8040000208DF80500E8
:104390000DF10602022101A8FFF793FF02A801AB6D
:1043A000042201A900900C2000F096F80EBD000038
:1043B00010B500F027F80121114800F03FFA00F095
:1043C00078F88D212A2000F01DF93E212B2000F0E5
:1043D00019F91E212D2000F015F900212C2000F0E4
:1043E00011F97021262000F00DF94021152000F070
:1043F00009F93D21112000F005F9FFF730FF10BD4C
:10440000003C00401CB501210420FEF75DFE0220A7
:104410008DF8050001208DF8040000208DF80600BD
:104420008DF807004FF40070009069460448FDF7CE
:1044300073FB4FF400700249183108801CBD000066
:104440000008024070B504464FF400700A49088025
:104450007E2000EA440040F08001084800F053FA52
:104460000021064800F04FFA05464FF4007002495B
:10447000891E0880284670BD1A080240003C004092
:104480007CB506460C4607210D2000F0BBF82670CF
:1044900001A823460122214600900C2000F01CF8C0
:1044A00005461DB9BDF80400102800D00225284695
:1044B0007CBD10B50F21012000F0A4F810BD70B52F
:1044C00005460C462846FFF7BDFF40EA0406314684
:1044D000284600F097F870BD2DE9FE4F0646884645
:1044E00091469A46DDF830B00220029000200190FB
:1044F00000900C2E06D00E2E09D112200190102013
:10450000009005E0772001903020009000E000BF8F
:1045100000BF019840F08001022000F073F8802174
:104520000420FFF710FF80210A20FFF7C8FF0021B9
:10453000012000F067F8002506E018F805100920B2
:1045400000F060F8681C85B24D45F6DB314601206D
:1045500000F058F80C2E03D180210D20FFF7AFFF9B
:104560004FF4FA6500BF0420FFF76CFF0446681E95
:1045700085B235B104F0010018B900982040002838
:10458000F1D080210D20FFF7DEFE002D36D0062071
:10459000FFF758FF00F01B0070BB0020029001984D
:1045A000204000F0010008B1012002900C2E25D11E
:1045B0000A20FFF747FF04460C20FFF743FF00F0F7
:1045C00007072FB1601E07EBC000ABF8000002E048
:1045D000E000ABF8000004B90124102C00DD102429
:1045E000002506E00920FFF72DFF0AF80500681CEA
:1045F00085B2A542F6DB01E0022002900298BDE8F8
:10460000FE8F000070B504460D464FF40070094956
:1046100008807E2000EA4401074800F074F929462A
:10462000054800F070F94FF400700249891E0880B7
:1046300070BD00001A080240003C00401CB5044652
:104640004CB90520032100231A46CDE90010E021D2
:104650000A48FFF7CDFD012C09D1052003210023D5
:104660001A46CDE9001038210548FFF7C1FD032C9B
:1046700003D10521034800F045F91CBD00000240AC
:1046800000040240003001401CB50446A4B90520D6
:10469000032100231A46CDE900104FF4806116482B
:1046A000FFF7A6FD0520032100231A46CDE90010DF
:1046B0000C211248FFF79CFD012C0AD10520032193
:1046C00000231A46CDE900104FF460410A48FFF775
:1046D0008FFD022C09D10520032100231A46CDE9C4
:1046E00000100D210648FFF783FD032C03D105219F
:1046F000044800F007F91CBD000402400008024015
:1047000000200240003800401CB504464CB9062089
:10471000032100231A46CDE9001038210B48FFF78A
:1047200067FD012C0AD10620032100231A46CDE99A
:1047300000104FF4E0510648FFF75AFD032C03D157
:104740000621044800F0DEF81CBD00000004024011
:1047500000080240003C00401CB504464CB905204E
:10476000032100231A46CDE9001064210B48FFF70E
:104770003FFD012C0AD10520032100231A46CDE973
:1047800000104FF4E0410548FFF732FD032C03D140
:104790000521034800F0B6F81CBD000000100240DF
:1047A000003401401CB5044654B905200321002300
:1047B0001A46CDE900104FF460711048FFF718FD5C
:1047C000012C13D10520032100231A46CDE9001046
:1047D000E1020A48FFF70CFD0520032100231A46D9
:1047E000CDE90010C0210648FFF702FD032C03D1DC
:1047F0000521044800F086F81CBD000000140240AA
:10480000001C0240005001401CB5044654B905206C
:10481000032100231A46CDE900104FF4E04105487A
:10482000FFF7E6FC032C03D10521034800F06AF8EA
:104830001CBD000000180240005401407CB5044635
:104840000D462A4884420AD100204FF48271202369
:104850000246CDE900102946204600F075F82448AC
:1048600084420AD100204FF4827120230246CDE910
:1048700000102946204600F067F81E4884420AD1FD
:1048800000204FF4827120230246CDE90010294612
:10489000204600F059F8184884420AD100204FF40D
:1048A000827120230246CDE900102946204600F0FF
:1048B0004BF8124884420AD100204FF48271202321
:1048C0000246CDE900102946204600F03DF80C488C
:1048D00084420AD100204FF4827120230246CDE9A0
:1048E00000102946204600F02FF87CBD0030014022
:1048F00000380040003C00400034014000500140BE
:104900000054014070470246108800F0400008B98A
:104910000020704700BF108900F003000028FAD083
:10492000108900F080000028F5D1918100BF108926
:1049300000F003000028FAD0108900F08000002861
:10494000F5D19089C0B2E4E72DE9F04385B0044683
:104950000E4615461F46DDE90C896846FEF722FF24
:104960004D4884420BD14D48006840F480504B497B
:1049700008603046FFF762FE0020ADF804004848AA
:1049800084420DD14548001F006840F480404349EF
:10499000091F08603046FFF777FE0020ADF80400DD
:1049A000404884420DD13D48001F006840F400405B
:1049B0003A49091F08603046FFF7A6FE0020ADF80F
:1049C0000400394884420BD13448006840F4005058
:1049D000324908603046FFF7BFFE0020ADF8040002
:1049E000324884420BD12D48006840F480102B4996
:1049F00008603046FFF7D6FE0020ADF804002C48D2
:104A000084420BD12548006840F400102349086017
:104A10003046FFF7F9FE0020ADF80400ADF80C7049
:104A20000020ADF80000ADF80E90ADF802804FF414
:104A30000070ADF80A002DB90020ADF80600ADF801
:104A4000080019E0012D06D10020ADF80600012074
:104A5000ADF8080010E0022D06D10220ADF80600E6
:104A60000020ADF8080007E0032D05D10220ADF8C5
:104A700006000120ADF80800208820F040002080CA
:104A800069462046FEF770FE208840F040002080F6
:104A900005B0BDE8F083000000300140443802401A
:104AA00000380040003C004000340140005001400C
:104AB0000054014010B59FED230A234880ED000A01
:104AC0000020224908700846007810B900202049CB
:104AD00008709FED1C0A0020FEF7E4FD9FED190A07
:104AE0000120FEF7DFFDFA2000F05AFC9FED150AC9
:104AF0000020FEF7D7FD9FED170A0120FEF7D2FD3B
:104B000040F2DC5000F04CFC01201349087000BF5B
:104B10001248FEF78BFA124908800846008840F2D6
:104B20008A21884205DC0E48008840F246518842BE
:104B300003DA00200849087000E0E9E70120034992
:104B4000087010BD00000000900000200D00002043
:104B50000E00002000001042020000209003002000
:104B60006400002010B59FED230A234880ED000A61
:104B70000020224908700846007810B9002020491A
:104B800008709FED1C0A0020FEF78CFD9FED190AAE
:104B90000120FEF787FDFA2000F002FC9FED190AC4
:104BA0000020FEF77FFD9FED130A0120FEF77AFD3E
:104BB00040F2DC5000F0F4FB01201349087000BF04
:104BC0001248FEF733FA124908800846008840F27E
:104BD0008A21884209DD0E48008840F24651884209
:104BE00003DA00200849087000E0E9E701200349E2
:104BF000087010BD00000000900000200D00002093
:104C00000E00002000001042010000209003002050
:104C10006400002000B597B001210820FEF754FA87
:104C200001214804FEF760FA01214805FEF74CFA1D
:104C30002020159002208DF8580000208DF85A0091
:104C400001208DF85B0002208DF8590015A941481C
:104C5000FCF762FF4020159002208DF8580015A93E
:104C60003C48FCF759FF072205213A48FCF79CFF16
:104C7000072206213748FCF797FF4FF4E1301190E7
:104C80000020ADF84800ADF84A00ADF84C00ADF892
:104C900050000C20ADF84E0011A92F4800F09CF8F0
:104CA00001212D4800F076F8012240212A4800F029
:104CB0007DF801228021284800F078F84FF000604C
:104CC00002902548001D0390244804900020059080
:104CD00001200690002007904FF48060089000208B
:104CE00009900A900B904FF400300C9000200D902A
:104CF00001200E9000200F90109002A91848FCF798
:104D0000C1FC01211648FCF795FC16480490402090
:104D100005901620069002A911481830FCF7B2FC45
:104D200001210F481830FCF785FC10208DF8040095
:104D300000208DF805008DF8060001208DF8070091
:104D400001A8FDF74FFA012210210548FCF77DFC70
:104D500017B000BD000C0240004400402C020020AF
:104D600088600240FA03002070B505460E46002414
:104D70000BE0295D064800F099F800BF8021044847
:104D800000F01DF80028F9D0641CB442F1DB70BDBE
:104D90000044004021B1828942F40052828104E043
:104DA00082894DF6FF731A40828170471AB1838A57
:104DB0000B43838202E0838A8B43838270470246DF
:104DC0000020B1F5007F00D100BF13880B400BB16C
:104DD000012000E0002070472DE9FF4705460E4600
:104DE0000024A14600BFA046B08900B100BF2C8AB4
:104DF00024F44054F08804432C82AC8941F20C60C6
:104E00008443B08831890843718908430443AC81E5
:104E1000AC8A24F44074B0890443AC826846FEF73F
:104E200083F92048854202D01F48854202D1DDF82F
:104E30000C9001E0DDF80890A88900F4004040B132
:104E400009EBC90000EB091031684900B0FBF1F72C
:104E500007E009EBC90000EB091031688900B0FBDD
:104E6000F1F76420B7FBF0F004012009642101FB95
:104E70001078A88900F4004040B1322000EBC8004F
:104E8000B0FBF1F000F00700044308E0322000EB33
:104E900008106421B0FBF1F000F00F0004432C81F6
:104EA000BDE8FF870010014000140140C1F3080273
:104EB0008280704700BFFEE703B40198410000986C
:104EC00050EAC12018BF04204A0D18BF40F001006D
:104ED00040F2FF72B2EB515F08BF40F002000128C0
:104EE00008BF052002B0704770B52DED020B2DED07
:104EF0000A8B82B00D98C40F20F00045AE48854261
:104F000048D3AE48854219D30C99C5F31300084322
:104F100009D09DED0C0B02B0BDEC0A8B02B0BDE8D0
:104F2000704000F009BA002C14BF9FEDA50B9DED59
:104F30000C0B02B0BDEC0A8B02B070BD9FEDA20B52
:104F400053EC102B9DED0C0B51EC100B01F05AF8AB
:104F50000AD20220FBF796FA02B0BDEC0A8B02B02F
:104F6000BDE8704000F0F4B99FED990B53EC102BA5
:104F70009DED0C0B51EC100B00F00AFF0AD2022041
:104F8000FBF780FA02B0BDEC0A8B02B0BDE87040BE
:104F900000F0EEB990489FED92BBA8425CD29248D7
:104FA000854219D29148784400EBC40090ED000B83
:104FB00053EC102B9DED0C0B51EC100B01F064F831
:104FC00041EC1A0B8A48784400EBC40090ED009B3A
:104FD000C4F10100041B36E09FED870B53EC102B4E
:104FE0009DED0C0B51EC100B00F00EFF41EC100B83
:104FF0008348784400EBC40090ED001B51EC100B8B
:1050000053EC112B00F072FC00F07CFE044600F023
:10501000A8FE41EC180B9FED7C0B53EC102B00F01D
:10502000F3FE9DED0C1B53EC112B01F021F841EC2C
:105030001A0B9FED770B51EC180B53EC102B00F073
:10504000E3FE41EC190B51EC1A0B53EC192B01F058
:105050001BF8CDE90C011BE06F48854217D29FED8C
:10506000700B53EC102B9DED0C0B51EC100B00F062
:105070003DFC53EC1B2B00F0C5FF08D29DED0C0B43
:1050800053EC1B2B51EC100B00F030FC6EE00024B5
:105090009DED0C0B53EC102B51EC100B00F0B4FEFB
:1050A00041EC180B60480521B0EE480AF0EE680AA2
:1050B000784400F0C5F853EC182B51EC100B00F0BD
:1050C000A3FE9DED0C1B53EC112B00F0D1FF41EC26
:1050D000180B9FED570B5CB353EC182B51EC100BD6
:1050E00000F0D2FF9DED0C0B41EC1C0B53EC182B88
:1050F00051EC100B00F088FE53EC1C2B00F0AAFCC6
:1051000053EC192B00F0B4FF53EC1A2B00F0BCFF4A
:1051100053EC1B2B00F0ACFFCDE900016FF47F7066
:10512000844226DB01EB045001909DED000B00E76B
:1051300053EC102B51EC180B00F0A6FF9DED0C0B5F
:1051400041EC190B53EC182B51EC100B00F05CFEEA
:1051500053EC192B00F07EFC9DED0C1B53EC112B36
:1051600000F092FF53EC1B2B00F082FF41EC100B80
:10517000DFE608464FF07A5101EB04519FED2E0B0C
:10518000084453EC102B01909DED000B51EC100BDB
:1051900000F03AFE0D4645EC100B044651EC100BA6
:1051A000FFF78AFE042808BF00F0E2F845EC104B38
:1051B000BFE6000000000000422E86400000F07FA5
:1051C0000000000000000000EF39FAFE422E864089
:1051D00051302DD5104987C0422ED63F0000000027
:1051E000000000000000F03FB2A2F03FCE1300002C
:1051F000BE13000000000000FE822B654715F73F3C
:1052000072130000000000000000E0FE422EE63FA6
:10521000763C7935EF39EA3D0000303E0000000071
:105220009C7500883CE4377EE4120000000000001A
:1052300000000000000000400000000000007001BD
:1052400070B504462DED028B4D1E00EBC500B0EE8F
:10525000408AF0EE608A90ED000B35F0060017D022
:1052600053EC182B51EC100B00F0CEFD41EC100B61
:105270006D1E04EBC50090ED001B51EC100B53ECC0
:10528000112B00F033FB41EC100B35F00600E7D199
:10529000022D36D0042D1CD0062D1CBFBDEC028B78
:1052A00070BD53EC182B51EC100B00F0ADFD94EDDC
:1052B0000A1B53EC112B00F019FB53EC182B00F0D8
:1052C000A3FD94ED081B53EC112B00F00FFB41ECF8
:1052D000100B53EC182B51EC100B00F095FD94EDD6
:1052E000061B53EC112B00F001FB53EC182B00F0C4
:1052F0008BFD94ED040B53EC102B00F0F7FA41EC0E
:10530000100B53EC182B51EC100B00F07DFD94EDBD
:10531000021B53EC112B00F0E9FA53EC182B00F0B0
:1053200073FD94ED001B53EC112B00F0DFFABDEC84
:10533000028B41EC100B70BD10B553EC102B51ECEF
:10534000100B00F0D3FA41EC100B10BD0000000070
:105350009FED050B10B553EC102B51EC100B00F02A
:1053600053FD41EC100B10BD000000000000007068
:105370009FED050B10B553EC102B51EC100B00F00A
:1053800043FD41EC100B10BD0000000000000010B8
:1053900030380A2801D201207047002070470000F1
:1053A00010B504460BE000210648FEF76DFE00BF75
:1053B0000448FEF766FDB0F57A7FF9D3641E002C31
:1053C000F1D110BD0018004010B504460021054879
:1053D000FEF75AFE00BF0348FEF753FDA042FAD382
:1053E00010BD0000001800401CB501210220FDF78F
:1053F0006BFE01208DF804008DF806004FF440602C
:10540000009000208DF8070003208DF80500694604
:105410000648FCF781FB4FF480610448FCF7F2FB7F
:105420004FF400610148FCF7EDFB1CBD0004024095
:1054300070B505464FF480612448FCF7E3FB032078
:10544000FFF7C2FF00261EE06006040E4FF4006165
:105450001E48FCF7D7FB0320FFF7B6FF4FF480612F
:105460001A48FCF7C4FB08B144F001040220FFF71E
:10547000ABFF4FF400611548FCF7C2FB0520FFF7B6
:10548000A3FF701CC6B2082EDEDB2DB14FF4806185
:105490000E48FCF7B5FB04E04FF480610B48FCF7C5
:1054A000B1FB0320FFF790FF4FF400610748FCF7C2
:1054B000A9FB0520FFF788FF4FF400610348FCF7C4
:1054C0009FFB0520FFF780FF204670BD00040240CF
:1054D00010B54FF400610F48FCF794FB0320FFF771
:1054E00073FF4FF480610B48FCF78CFB0320FFF740
:1054F0006BFF4FF480610748FCF782FB0320FFF746
:1055000063FF4FF400610348FCF77AFB0320FFF7C9
:105510005BFF10BD0004024010B54FF480610B48E2
:10552000FCF76EFB0320FFF74FFF4FF400610748C5
:10553000FCF768FB0320FFF747FF4FF48061034847
:10554000FCF760FB0320FFF73FFF10BD00040240A3
:1055500070B50446002624E004F0800028B14FF422
:1055600080612448FCF74EFB04E04FF48061214841
:10557000FCF746FB0320FFF727FF4FF400611D48AF
:10558000FCF740FB0520FFF71FFF4FF400611948AF
:10559000FCF736FB0220FFF717FF6006040E701CB5
:1055A000C6B2082ED8DB4FF480611248FCF72AFB04
:1055B0000320FFF709FF4FF400610E48FCF722FBC0
:1055C0000320FFF701FF4FF480610A48FCF70FFB4F
:1055D00008B1002500E001250220FFF7F5FE4FF499
:1055E00000610448FCF70CFB0520FFF7EDFE2846A0
:1055F00070BD0000000402401CB5734800684FF401
:105600007A72B0FBF2F1481EB0F1807F00D31BE04C
:10561000481E4FF0E022506150170F22002804DB93
:1056200013071C0E694B1C5406E013071D0E684B34
:1056300000F00F04241F1D5500BF00204FF0E02292
:1056400090610720106100BF01210846FDF73CFD75
:1056500001210220FDF738FD01210420FDF734FD72
:1056600001210820FDF730FDFDF7C4FAFCF716F91B
:10567000FCF7D4FEFBF77CFEFEF7ACFBFFF7CAFAA3
:10568000FEF746FBFEF7EAF9FEF792FEFCF76AFB2F
:10569000FCF744FB0120FCF731FB0120FCF7B8FBD1
:1056A0004C4890ED000B53EC102B4BA14C48FAF7F3
:1056B00007FE4B48FCF7C4FB0220FCF7A9FB49A0FE
:1056C000FCF7BEFB0320FCF7A3FB48A0FCF7B8FBEC
:1056D0000420FCF79DFB4AA0FCF7B2FB00208DF8EC
:1056E000040001208DF806004FF440400090012096
:1056F0008DF8070002208DF8050069464548FCF743
:105700000BFA454890ED000A444880ED000A59E044
:10571000424890ED000A404880ED000A4048006889
:10572000012841D13F48FDF781FC3F4908803F48AF
:105730000078012813D13E48007801280FD10020BD
:1057400004E03C49095C3C4A1154401C3B4909783F
:105750008842F6DB00203649087034490870384822
:10576000FEF7E1FD50B99FED370A374880ED000A9A
:10577000012036490870FDF7D5FD02E000203349CD
:1057800008702B480078012806D12D48FEF7CBFD84
:1057900010B101202E4908702E480088401C2D4968
:1057A000088000201E4908602A4800880A2802D183
:1057B00000202849088028480088642802D1002059
:1057C00025490880A4E700000002002000E400E072
:1057D00018ED00E0F001002025302E30660D0A00A3
:1057E0009A0300204147562031000000436F6E208D
:1057F0004469205468756120546869656E00000032
:1058000053616920476F6E204769612044696E6863
:105810000000000000040240004002400800002098
:105820001802002090030020640000200C000020DB
:1058300088020020D20300205C0300202D020020FB
:105840004000002000000000900000200E0000201A
:105850000D000020120000201400002010B50029C7
:105860000AD00878002807D005487844FBF770F97B
:10587000002801D0002010BD0248784410BD00006F
:105880000A0C0000020C000021F00042A2F160525C
:10589000B2F5801F01F0004328BFD2F17F6C0BD915
:1058A0005FEA001C43EAC20242EB507018BF704727
:1058B00028BF20F001007047B2F5801FBCBF18461A
:1058C00070474FEA410C1CF5001F02D2084600F059
:1058D0003BBD70B500F042FB00000089FFF7F6BF4A
:1058E0004FF00040A0F580007047000010B591EA2D
:1058F000030F48BF83F0004300F1CE83841A71EB9D
:10590000030C05D2121943EB0C03001B61EB0C01D5
:10591000DFF824E14FEA1154A4EB135C1EEA430FB5
:1059200018BF9EEA445F73D023EA0E03DCF1200E19
:1059300021EA045143F4801332D322FA0CFE10EB17
:105940000E0023FA0CFE41EB0E01CCF1200E03FAFF
:105950000EFE10EB0E0051F10001B1F5801FCCF1ED
:10596000200E32D201EB045112FA0EF2BDE81040C3
:1059700058BF7047401C38BF5FEA420218BF7047EB
:10598000002814BF20F0010041F100014FEA41035B
:1059900013F5001F38BF7047A1F1C04100F02CBBC8
:1059A000012A43EB0302ACF1200CDCF11F0E32BFE5
:1059B0004FF0000E23FA0CF310EB030041EB0451FF
:1059C000B4EB115FD0D0A1EB045101F5801149086F
:1059D0005FEA300001EB04510ED350F1000038BFF4
:1059E00012FA0EFE08D1BDE81040C9E7401C38BFCE
:1059F0005FEA4202CAD1C3E7BDE810404FEA410363
:105A000013F5001F38BF7047A1F1C04100F0F4BA90
:105A10009EEA445F08D011EA5E0FBDE8104004BF63
:105A200001F0004100207047BDE8104070B500F063
:105A300095FA00BF64FBBE3E0000E0FF491058BF6E
:105A4000C1F140415B1058BFC3F140438B42EFF3BB
:105A5000008070472DE9C04130B4DFF8A0C23CEAB5
:105A6000111418BF3CEA131400F0EC8081EA03051E
:105A70001CEA111444EAD57418BF1CEA131500F08F
:105A8000C780A4EB05044FF0004545EAC12145EA73
:105A9000C32341EA505143EA525304F17F749942BF
:105AA00004F500344FEAC0204FEAC22208BF9042FA
:105AB00000F09C804FEA13650FF24016765D4FEAC6
:105AC000134506FB05F7C7F1807706FB07F74FEA9A
:105AD000D737A7FB03687642C8F58038A7FB06CE08
