:020000040800F2
:10000000980A002069020008D5100008850B000836
:10001000C910000885030008A5360008000000008C
:100020000000000000000000000000008521000822
:10003000D9050008000000000D18000899220008EA
:10004000830200088302000883020008830200087C
:10005000830200088302000883020008830200086C
:10006000830200088302000883020008830200085C
:10007000830200088302000883020008830200084C
:100080008903000883020008830200088302000835
:10009000830200088302000883020008830200082C
:1000A000830200088302000883020008830200081C
:1000B00079230008830200088302000883020008F5
:1000C00083020008830200088302000883020008FC
:1000D00083020008830200088302000883020008EC
:1000E00083020008830200088302000883020008DC
:1000F00083020008830200088302000883020008CC
:1001000083020008830200088302000883020008BB
:100110008302000883020008E92300088302000824
:10012000830200088302000883020008830200089B
:10013000830200088302000883020008830200088B
:10014000830200088302000883020008830200087B
:10015000830200088302000883020008830200086B
:10016000830200088302000883020008830200085B
:10017000830200088302000883020008830200084B
:10018000830200088302000800F002F800F05CF827
:100190000AA090E8000C82448344AAF10107DA45E2
:1001A00001D100F051F8AFF2090EBAE80F0013F0D8
:1001B000010F18BFFB1A43F0010318472C49000038
:1001C0004C4900000A444FF0000C10F8013B13F0BA
:1001D000070408BF10F8014B1D1108BF10F8015BA0
:1001E000641E05D010F8016B641E01F8016BF9D193
:1001F00013F0080F1EBF10F8014BAD1C0C1B09D1EA
:100200006D1E58BF01F801CBFAD505E014F8016B5B
:1002100001F8016B6D1EF9D59142D6D370470000ED
:100220000023002400250026103A28BF78C1FBD8FF
:10023000520728BF30C148BF0B6070471FB504F09C
:100240001AFC1FBD10B510BD00F044F81146FFF7B1
:10025000F5FF03F0C1FD00F062F803B4FFF7F2FF11
:1002600003BC00F065F800000948804709480047D2
:10027000FEE7FEE7FEE7FEE7FEE7FEE7FEE7FEE756
:10028000FEE7FEE704480549054A064B70470000B3
:10029000B52200088901000898040020980A00206F
:1002A000980600209806002070477047704710B5E8
:1002B00000F008F8006810BD10B5044600F002F820
:1002C000046010BD004870473404002000487047A7
:1002D000340400207546FFF7F9FFAE460500694675
:1002E000534620F00700854618B020B5FFF7CAFF37
:1002F000BDE820404FF000064FF000074FF0000827
:100300004FF0000B21F00701AC46ACE8C009ACE8A7
:10031000C009ACE8C009ACE8C0098D46704710B50B
:100320000446AFF300802046BDE81040FFF795BFBC
:1003300001491820ABBEFEE726000200704700000E
:1003400010B50E48006840F080500C4908600B481A
:100350001038006840F480200849103908600120F6
:1003600001F048FA012001F04BFA00BF0448406850
:1003700000F008000028F9D010BD0000403802400D
:100380000070004000BFFEE710B54A494A4800F03F
:10039000B5F84A4800784A4908704A480078474901
:1003A00008704948006801280AD108460178474882
:1003B000474A1268815446480068401C4449086016
:1003C00041480068012862D13D4800780A285ED182
:1003D0003A4800780D285AD13C480078AC2818D10A
:1003E0003A484078012814D13A483849D1F80210E7
:1003F000016039483549D1F8061001603748334962
:10040000D1F80A10016036483049D1F80E10016069
:1004100038E02E480078AD2818D12C4840780128C3
:1004200014D130482949D1F8021001602E482749DB
:10043000D1F8061001602D482449D1F80A10016056
:1004400027482249D1F8021001601BE01F480078BC
:10045000A12817D11D484078012813D124481B49F1
:1004600089780170002006E022490A18C11C174B48
:10047000C95C1170401C1E4909788842F4DB0120D8
:100480001D490870002010490860114908600E4895
:10049000006850B90A480078AA2806D107480078B1
:1004A000FF2802D10120084908600121024800F01C
:1004B0003FF810BD00880020886002402002002024
:1004C00021020020100200206402002062030020AC
:1004D000680200204C02002050020020540200203C
:1004E0003002002040020020440200204802002088
:1004F000110200207C0300206C0200200246094B00
:100500009A4201D2084801E00648103801F0005331
:100510001BB1064B0B40C36002E0044B0B408360F1
:100520007047000010640240006002407D0F7D0FA4
:1005300021B1026842F00102026003E0026822F089
:1005400001020260704710B501F080034BB122B187
:10055000436943F08003436103E0436923F0800370
:10056000436180290BD02AB1036801F01E042343A4
:10057000036004E0036801F01E04A343036010BDA0
:1005800010B500220268134B1A40CC680B68234355
:100590004C6923438C692343CC6923430C6A23436E
:1005A0004C6A23438C6A23434C6B23438C6B234359
:1005B0001A430260426922F00702D1E90B34234357
:1005C0001A4342610B6943604B6883608B68C36068
:1005D00010BD00003F801CF07047000010B565485A
:1005E0000078401E6449085C01283BD1BAEE040A39
:1005F000624880ED000A322003F0C2FA04E0BAEE4D
:10060000040A5E4880ED000A5D4800780028F6D0B4
:10061000BBEE0E0A002001F029FDBBEE0E0A012000
:1006200001F024FD4FF47A7003F0AAFA9FED550A09
:10063000002001F01BFD9FED530A012001F016FD83
:100640009FED500A4D4880ED000A322003F098FAE1
:1006500004E09FED4C0A494880ED000A48480078C4
:100660000028F6D043480078401E4349085C022821
:100670003CD19FED450A414880ED000A322003F04D
:100680007FFA04E09FED400A3C4880ED000A3C48B8
:1006900000780028F6D0BBEE0E0A002001F0E6FC40
:1006A000BBEE0E0A012001F0E1FC4FF47A7003F07A
:1006B00067FA9FED340A002001F0D8FC9FED310A63
:1006C000012001F0D3FC9FED310A2C4880ED000A97
:1006D000322003F055FA04E09FED2C0A274880ED04
:1006E000000A274800780028F6D042E02148007828
:1006F000401E2149085C03283BD19FED250A1F4875
:1007000080ED000A322003F03BFA04E09FED200A5E
:100710001A4880ED000A1A4800780028F6D0BBEE8F
:100720000E0A002001F0A2FCBBEE0E0A012001F02F
:100730009DFC4FF47A7003F023FA9FED120A00201B
:1007400001F094FC9FED0F0A012001F08FFC9FED5A
:10075000110A0A4880ED000A322003F011FA04E081
:100760009FED0C0A054880ED000A05480078002836
:10077000F6D010BD1102002018030020D401002083
:10078000EC02002000000000000048C2000020C26F
:100790000000B4C20000A0C20EB50121042001F087
:1007A00005FA4FF400504310314A11460090314889
:1007B00000F002F902220C212D4800F081F90222FA
:1007C0000D212B4800F07CF947F23051294802F006
:1007D00057F80121082001F0E9F902200123264AF7
:1007E00011460090254800F0E7F802220021224837
:1007F00000F066F9022201211F4800F061F947F27A
:1008000030511E4802F03CF80121022001F0DEF9CF
:100810000121042001F0BAF9C020019002208DF8D6
:10082000080003208DF8090000208DF80A0001203F
:100830008DF80B0001A9124800F0FAF803220621F6
:100840000F4800F03DF9032207210D4800F038F968
:1008500000231A4603210B4801F0EEFE002009494F
:10086000243108600121074801F0CBFE0EBD0000D5
:10087000000C02400008004000000240000C004054
:10088000000802400004014070B52DED108B0546B4
:100890000C46B0EE408A284601F0EFFE06B2A000FA
:1008A00003F0FBFD41EC1C0BA6F5EA40303803F0E9
:1008B000F4FD41EC1F0B9FED180B53EC102B03F0D4
:1008C0003FFE41EC1E0B9FED160B53EC102B03F07B
:1008D00037FE41EC1D0B53EC1C2B03F057FC41EC95
:1008E0001A0B18EE100A04F055F841EC1B0B53ECF0
:1008F0001A2B03F097FB41EC190B03F061FB08EE98
:10090000100A47F23051284601F0BAFFB0EE480A0B
:10091000BDEC108B70BD0000000000000000214005
:100920001F85EB51B81E094070B52DED0C8B0546A7
:100930000C46284601F0A1FE06B2A00003F0ADFD72
:1009400041EC1A0BA6F5EA413039164A127801FB40
:1009500002F003F0A2FD41EC1D0B9FED130B53ECD5
:10096000102B03F0EDFD41EC1C0B9FED110B53EC34
:10097000102B03F0E5FD41EC1B0B53EC1A2B03F09D
:1009800005FC41EC190B03F01BFB08EE100A47F2C3
:100990003051284601F074FFB0EE480ABDEC0C8BD4
:1009A00070BD000074020020000000000000214023
:1009B0001F85EB51B81E09402DE9F04186B007466E
:1009C0000C4615461E46DDF83080049602208DF850
:1009D000140001208DF8170002208DF8150004A9DD
:1009E000204600F025F8CDF8108004A9284600F034
:1009F0001FF80020ADF80C00ADF80600ADF80400BB
:100A00004FF6FF70029001A9384601F03BFF00212C
:100A1000384601F035FF00231A460321384601F01D
:100A20000BFE0121384601F0ECFD06B0BDE8F08177
:100A3000F0B50A4600210023002400BF3DE0012557
:100A400005FA01F3156805EA03049C4234D10568F0
:100A50004F000326BE40B543056015794E00B540F2
:100A60000668354305601579012D02D01579022DF0
:100A700016D185684F000326BE40B5438560557981
:100A80004E00B540866835438560456801268E4036
:100A9000B5434560456896798E40B6B235434560AA
:100AA000C5684F000326BE40B543C560D5794E00EA
:100AB000B540C6683543C560491C1029BFD3F0BD99
:100AC000F0B5002300244D07ED0E02FA05F3CE1019
:100AD00000F1200555F826504E07F70E0F26BE40B0
:100AE000B543CF1000F1200646F82750CE1000F194
:100AF000200555F8265045EA0304CE1000F12005E4
:100B000045F82640F0BD0246002013690B400BB1AA
:100B1000012000E000207047418370470183704747
:100B20000AB1018300E04183704700001CB5114801
:100B3000007810B9104800781CBD0020044614E06D
:100B4000002007E004EB84010C4A1144095C0DF815
:100B50000010401C0528F5DB6946094801F0FCFF40
:100B600008B9E0B2E8E7601C04463C2CE8DB00BFB3
:100B7000E2E700000A000020860000208C00002030
:100B80003C00002000BFFEE72DE9F04107460D467E
:100B9000164603F08DF8384603F0CAF820B903F082
:100BA000ABF80020BDE8F081002405E0012003F04F
:100BB0002FF82855601CC4B2701EA042F6DC00203D
:100BC00003F026F8285503F097F80120EAE72DE90D
:100BD000F04107460D46164603F06AF8384603F022
:100BE000A7F820B903F088F80020BDE8F0810024C0
:100BF00009E0285D03F09CF818B903F07DF80020A7
:100C0000F3E7601CC4B2B442F3DB03F075F80120D3
:100C1000EBE7000010B504461CB101200449C87080
:100C200002E000200249C87000F00AF810BD000080
:100C3000BA02002010B5012000F0C0F810BD00007D
:100C400010B500240EE00B480078401009490870E8
:100C50000948005D20B10846007840F08000087027
:100C6000601CC4B2082CEEDB012202494E20FFF7C3
:100C7000AEFF10BDC2020020BA0200203EB5012125
:100C8000402000F093FF5320ADF800004FF6FF70B6
:100C900001906946224801F0F5FD0121204801F04C
:100CA000B0FC322002F06CFF00F010FA002404E0E7
:100CB00000201C490855601CC4B2082CF8DBFFF763
:100CC000BFFF002017490870FFF7BAFF0020154941
:100CD0004870FFF7B5FF032000F088F8052002F008
:100CE0004FFF032000F082F8012002F049FF0320AB
:100CF00000F07CF8012002F043FF022000F076F8BB
:100D0000012002F03DFF282000F058F80C2000F0F0
:100D100055F80E2000F052F8012000F04FF83EBDCB
:100D200000180040BA02002010B5C02000F046F8BC
:100D300010BD10B5044607E0207820B114F8010B6F
:100D400000F08CF800E000E0F6E700BF10BD000006
:100D500008B501201849087148718871C871FFF7FA
:100D60006FFF002014490870FFF76AFF0120124945
:100D70004870FFF765FF00BF01200F498870FFF73B
:100D80005FFF012269464F20FFF7FEFE00200A495F
:100D90008870FFF755FF012007498870FFF750FF63
:100DA000002005498870FFF74BFF9DF8000000F018
:100DB00008000028E0D108BDBA02002010B50446A2
:100DC000FFF7C6FF002008490870FFF739FF002031
:100DD00005494870FFF734FF201100F007F820465E
:100DE00000F004F810BD0000BA02002010B504465F
:100DF00004F0080018B101201749C87102E0002072
:100E00001549C87104F0040018B101201249887115
:100E100002E000201049887104F0020018B101209E
:100E20000D49487102E000200B49487104F00100AF
:100E300018B101200849087102E000200649087134
:100E4000012005498870FFF7FBFE002002498870E9
:100E5000FFF7F6FE10BD0000BA02002010B50446F0
:100E6000FFF776FF012008490870FFF7E9FE002030
:100E700005494870FFF7E4FE2011FFF7B7FF204651
:100E8000FFF7B4FF10BD0000BA02002070B52DEDD1
:100E9000108BB0EE408A0446002C7DD17E4800685D
:100EA00003F078FD41EC1C0B7C4890ED000ABFEE8E
:100EB000001AC1EE000A7A4890ED000A20EE800A7E
:100EC00010EE105A284603F065FD41EC1E0BB0EE03
:100ED0004E0AF0EE6E0A02F0FFFBB0EE40DAF0EEE2
:100EE00060DA53EC1C2B51EC1D0B03F029FB41EC99
:100EF0001A0B6C48006803F04DFD41EC1C0B674871
:100F0000D0ED000ABFEE001A81EE200A6448D0ED51
:100F1000000A20EE200A10EE105A284603F03AFD8F
:100F200041EC1F0BB0EE4F0AF0EE6F0A02F0D4FB5B
:100F3000B0EE40EAF0EE60EA9FED5B0B53EC102B55
:100F400051EC1E0B03F030FC41EC1D0B53EC1C2B41
:100F500003F0F6FA41EC1B0B53EC1A2B03F062F88A
:100F600041EC190B03F02CF8514908604A4890ED08
:100F7000000A504880ED000A084690ED000A4648F5
:100F800080ED000A474880ED008A084690ED000A8F
:100F9000BDEC108B70BDFFE7012C7BD1464800688B
:100FA00003F0F8FC41EC1C0B3C48D0ED000ABFEE0E
:100FB000001A81EE200A3A48D0ED000A20EE200AFD
:100FC00010EE105A284603F0E5FC41EC1E0BB0EE83
:100FD0004E0AF0EE6E0A02F07FFBB0EE40DAF0EE61
:100FE00060DA53EC1C2B51EC1D0B03F0A9FA41EC19
:100FF0001A0B3248006803F0CDFC41EC1C0B27486B
:10100000D0ED000ABFEE001A81EE200A2448D0ED90
:10101000000A20EE200A10EE105A284603F0BAFC0F
:1010200041EC1F0BB0EE4F0AF0EE6F0A02F054FBDA
:10103000B0EE40EAF0EE60EA9FED1B0B53EC102B94
:1010400051EC1E0B03F0B0FB41EC1D0B53EC1C2BC1
:1010500003F076FA41EC1B0B53EC1A2B02F0E2FF83
:1010600041EC190B02F0ACFF15490860124890EDF5
:10107000000A144880ED000A084690ED000A0E4868
:1010800080ED000A0D4880ED008A084690ED000AC8
:101090007EE7FFE700BF7BE7A00200208802002078
:1010A0008C0200209C020020000000000000F03FA5
:1010B00078020020A4020020940200209002002068
:1010C000800200209802002000BFFEE710B502F069
:1010D0007BFD10BD7047000070B5002100230F227A
:1010E000C4781CB3174C246804F4E064C4F5E064CD
:1010F000C4F30721C1F10404E3B20A4144789C40DF
:10110000E1B28478144021430C07210E0E4C05787F
:101110006155047804F01F050124AC4005786D1179
:10112000AD0005F1E025C5F8004109E0047804F0C0
:101130001F050124AC40054D0678761145F8264080
:1011400070BD00000CED00E000E400E080E100E094
:1011500010B52DED0E8BB0EE408AF0EE608A9FED5B
:10116000610A38EE400AB4EEE80AF1EE10FA15D83A
:101170009FED5C0A38EE000AB4EEE80AF1EE10FAD0
:101180000CDB9FED590A594880ED060A9FED560A7F
:1011900080ED070A01205649087075E00020544987
:1011A000087038EE680A514880ED030A90ED030A92
:1011B000D0ED040AB0EE001A01EE600AD0ED050A87
:1011C00030EE200A4B48D0ED000A20EE200A4748B6
:1011D000D0ED080A80EE201A11EE104A204603F0E6
:1011E000D9FB41EC1A0B414890ED030AD0ED040AFB
:1011F00030EE200AD0ED080A3F4890ED001A60EE6C
:10120000810A20EE200A10EE101A084603F0C2FBF5
:1012100041EC1E0B9FED390B53EC102B03F090F9B2
:1012200041EC1C0B314890ED030AD0ED040A70EE3E
:10123000600A90ED070A334890ED001A01EE200A8B
:1012400010EE101A084603F0A5FB41EC1D0B53EC01
:101250001C2B02F0E7FE41EC1B0B53EC1A2B02F0A7
:10126000E1FE41EC190B02F0ABFE20498861084613
:1012700090ED060A80ED070A90ED040A80ED050A5C
:1012800090ED030A80ED040A184890ED060ADFEDA0
:101290001E0AB4EEE00AF1EE10FA04DB9FED1A0A22
:1012A00080ED060A0DE0114890ED060ADFED170A01
:1012B000B4EEE00AF1EE10FA03D89FED140A80EDC7
:1012C000060A0A4890ED060AF0EE000A80EE201A9F
:1012D000B0EE419AB0EE490A022000F0C7FEBDEC24
:1012E0000E8B10BDCDCCCC3E0000000010040020C1
:1012F000EC020020600200205C02002000000000E0
:101300000000E03F580200200000C8420000C8C2B0
:10131000B0EE080A364880ED000AB1EE000A80ED12
:10132000010A9FED340A80ED020A9FED330A80ED39
:10133000080A9FED320A80ED030A9FED300A80ED26
:10134000040A9FED2E0A80ED050A9FED2C0A80ED20
:10135000060A9FED2A0A80ED070A9FED290A29480F
:1013600080ED000A9FED280A80ED010A9FED270A13
:1013700080ED020A9FED200A80ED080A9FED1F0A0A
:1013800080ED030A9FED1D0A80ED040A9FED1B0A04
:1013900080ED050A9FED190A80ED060A9FED170AF8
:1013A00080ED070AB0EE000A194880ED000AB0EEA1
:1013B000000A80ED010A9FED0F0A80ED020A9FED01
:1013C0000E0A80ED080A9FED0D0A80ED030A9FEDDD
:1013D0000B0A80ED040A9FED090A80ED050A9FEDD6
:1013E000070A80ED060A9FED050A80ED070A70479F
:1013F000C80300208FC2753C0AD7233C00000000C0
:101400006F12033BEC030020CDCC4C3ECDCCCC3D49
:101410001004002010B52DED068BF0EE40AAF0EE82
:10142000608A3C48007828B99FED3B0A3B4880ED34
:10143000000A6BE037480078012867D19FED380A31
:101440003AEEC00ABDEEC00AB0EE409A354890EDC3
:10145000000AF8EEC90A20EE200AF8EEC90A2F4861
:1014600090ED001A70EEC10A2F4890ED001A01EEBF
:10147000200ABDEEC00AB0EE408AB8EEC90A27487D
:1014800080ED000AB8EEC80AB4EEE80AF1EE10FAF0
:1014900004DDBDEEE80AB0EE408A0EE0B8EEC80A00
:1014A000F1EE680AB4EEE00AF1EE10FA05D2B1EE00
:1014B000680ABDEEC00AB0EE408A18EE100A00EBD2
:1014C000D071491000EE101AB8EEC00AF0EE000A12
:1014D00078EEA00A30EE200AFDEEC09A18EE100A4F
:1014E00000EBD071491000EE101AB8EEC00A38EEC9
:1014F000C00ABDEEC0AAB8EECA0A002000F0B6FDD0
:10150000B8EEE90A012000F0B1FD00BFBDEC068B8A
:1015100010BD00000900002000000000F4020020BF
:1015200000007A44400200204802002010B52DED52
:101530000E8BB0EE408AF0EE608A5248007868B9AF
:101540009FED510A514880ED060A9FED4F0A80ED4C
:10155000070A9FED4D0ABDEC0E8B10BD38EE680AF0
:101560004A4880ED030A90ED030AD0ED040AB0EE7C
:10157000001A01EE600AD0ED050A30EE200A444858
:10158000D0ED000A20EE200A4048D0ED080A80EE97
:10159000201A11EE104A204603F0FCF941EC1A0B18
:1015A0003A4890ED030AD0ED040A30EE200AD0ED5F
:1015B000080A384890ED001A60EE810A20EE200AF1
:1015C00010EE101A084603F0E5F941EC1E0B9FEDF2
:1015D000320B53EC102B02F0B3FF41EC1C0B2B48E9
:1015E00090ED030AD0ED040A70EE600A90ED070A50
:1015F0002B4890ED001A01EE200A10EE101A084652
:1016000003F0C8F941EC1D0B53EC1C2B02F00AFD52
:1016100041EC1B0B53EC1A2B02F004FD41EC190BAF
:1016200002F0CEFC19498861084690ED060A80ED6B
:10163000070A90ED040A80ED050A90ED030A80ED9B
:10164000040A90ED060ADFED170AB4EEE00AF1EEA7
:1016500010FA04DB9FED130A80ED060A0DE00B483B
:1016600090ED060ADFED100AB4EEE00AF1EE10FA92
:1016700003D89FED0D0A80ED060A044890ED060A96
:1016800069E700000900002000000000C8030020F6
:101690005402002050020020000000000000E03F43
:1016A0004C0200200000C8420000C8C210B5012151
:1016B000022000F07BFA00F00BF89FED030A0348CC
:1016C00000F03CF810BD000000409C4600040040C3
:1016D0001FB53120029002208DF80C0000208DF8FB
:1016E0000E0001208DF80F0003208DF80D0002A9D7
:1016F0001148FFF79DF9022204210F48FFF7E0F996
:10170000022205210C48FFF7DBF9022200210A48DA
:10171000FFF7D6F9C220009001208DF804000020C8
:101720008DF8060002208DF807008DF80500694647
:101730000148FFF77DF91FBD0004024070B52DED93
:10174000028B8CB00546B0EE408A0026002408A823
:1017500000F04CFA099840082549B0FBF1F0441E0E
:101760000998400800EE100AF8EE400A601C00EEEE
:10177000100AB8EE400A20EE081A80EE810AF7EE51
:10178000000A30EE600ABCEEC00A10EE106A0020BB
:10179000ADF81C00ADF81600A0B2ADF81400069626
:1017A00005A9284601F06EF86020ADF80000002081
:1017B000ADF80C000120ADF802000020029069464F
:1017C000284600F077FF6946284600F0B1FF6946D9
:1017D000284600F0FFFF0121284600F01EFF0121EE
:1017E000284600F00EFF0CB0BDEC028B70BD00006F
:1017F00080841E00014908627047000000000E420C
:101800000149086070470000A4000E4270470000C4
:1018100010B56148407801283CD19FED600A6048CE
:1018200080ED000A322002F0ABF904E09FED5B0A84
:101830005B4880ED000A5B4800780028F6D0BBEEDC
:101840000E0A002000F012FCBBEE0E0A012000F090
:101850000DFC4FF47A7002F093F99FED500A0020CE
:1018600000F004FC9FED4D0A012000F0FFFBBAEEF2
:10187000040A4B4880ED000A322002F081F904E0AE
:10188000BAEE040A464880ED000A4648007800286F
:10189000F6D080E04048407802283CD19FED420AD3
:1018A0003F4880ED000A322002F06AF904E09FED23
:1018B0003E0A3B4880ED000A3A4800780028F6D0FE
:1018C000BBEE0E0A002000F0D1FBBBEE0E0A012099
:1018D00000F0CCFB4FF47A7002F052F99FED2F0A22
:1018E000002000F0C3FB9FED2D0A012000F0BEFB9D
:1018F0009FED2E0A2A4880ED000A322002F040F9BE
:1019000004E09FED2A0A264880ED000A2548007869
:101910000028F6D03FE02048407803283BD19FEDD7
:10192000240A1F4880ED000A322002F029F904E061
:101930009FED1F0A1A4880ED000A1A480078002817
:10194000F6D0BBEE0E0A002000F090FBBBEE0E0AB4
:10195000012000F08BFB4FF47A7002F011F99FED3B
:101960000F0A002000F082FB9FED0C0A012000F01E
:101970007DFB9FED100A0A4880ED000A322002F03C
:10198000FFF804E09FED0B0A054880ED000A0548CA
:1019900000780028F6D010BD1803002000000000D9
:1019A000D4010020EC020020000020C2000048C248
:1019B0000000A0C20000B4C270B52DED028B054638
:1019C0000C46284600F059FE00B208EE100AB8EEA8
:1019D000C80AF1EE000A60EE200AA00000EE100A2C
:1019E000B8EEC00A80EE801AF0EE418A0021284647
:1019F00000F046FFB0EE680ABDEC028B70BD00003F
:101A00001CB58F20009000208DF804008DF8070091
:101A100069460248FFF70CF81CBD0000000C0240AC
:101A20001CB58F20009001208DF8040000208DF857
:101A3000070002208DF8050069460248FEF7F8FF0E
:101A40001CBD0000000C024070B586B006460020A8
:101A500007E04FF47A7103AA22F810102DF8101045
:101A6000401C0528F5DBFFF7DBFF01228F211A4818
:101A7000FFF756F80025FFF7C3FF0020174908605D
:101A800001211648243800F0BCFD1FE0134800680F
:101A900085B2002413E0124830F814100E48FFF706
:101AA00032F858B903A830F81400A84206DD03A89C
:101AB00020F8145030F8140026F81400641C052C8B
:101AC000E9DB01210548243800F09BFDB5F57A7F5C
:101AD000DCDB06B070BD0000000C024024140040A6
:101AE000AC020020FEB504464FF47A770025684624
:101AF000FFF7AAFF00200CE03DF81010A94201DD1D
:101B00003DF810503DF81010B94201DA3DF8107060
:101B1000401C0528F0DBE81B86B200200FE006EB36
:101B2000D672A5EB62023DF810309A4203DA012129
:101B300024F8101002E0002124F81010401C0528A1
:101B4000EDDB00204000A18801EB4102C2EBC11196
:101B500000EBC100E18801EB4102C2EBC11100EBD7
:101B60000110218901EB4102C2EBC11100EB011010
:101B70006188A2881144E288114422891144228894
:101B8000114490FBF1F080B2FEBD000029B1064A7D
:101B900012680243044B1A6004E0034A126882434D
:101BA000014B1A60704700003038024029B1064AE4
:101BB00012680243044B1A6004E0034A126882432D
:101BC000014B1A60704700004038024029B1064AB4
:101BD00012680243044B1A6004E0034A126882430D
:101BE000014B1A607047000044380240F0B50021F4
:101BF00000220024022500260223324F3F6807F00E
:101C00000C0121B1042905D0082937D105E02E4F58
:101C1000076036E02D4F076033E02A4F3F1F3F68D3
:101C2000C7F38056274F3F1F3F6807F03F036EB151
:101C3000264FB7FBF3F7DFF88CC0ACF1040CDCF8EF
:101C400000C0CCF3881C07FB0CF40CE01E4FB7FB64
:101C5000F3F7DFF870C0ACF1040CDCF800C0CCF393
:101C6000881C07FB0CF4174F3F1F3F68C7F3014761
:101C70007F1C7D00B4FBF5F7076002E0124F0760A0
:101C800000BF00BF0F4F3F6807F0F0010909104F78
:101C90007A5C0768D74047600A4F3F6807F4E05115
:101CA000890A0B4F7A5C4768D7408760054F3F68C9
:101CB00007F46041490B064F7A5C4768D740C7601C
:101CC000F0BD0000083802400024F40000127A0041
:101CD0000002002010B5002039490870084600783D
:101CE00010B90020374908709FED370A374880ED5A
:101CF000000A9FED350A364880ED000A47F2305160
:101D0000344800F0BDFD47F23051334800F0B8FDD3
:101D10009FED2D0A002000F0A9F99FED2B0A01206C
:101D200000F0A4F94FF4FA7001F02AFF9FED2B0A9E
:101D3000002000F09BF99FED2A0A012000F096F99F
:101D400018E0224890ED000A40F26B112148FEF79E
:101D50009BFD1E4880ED000A1D4890ED000A40F2F0
:101D60006B111D48FEF790FD194880ED000A012017
:101D700001F006FF154890ED000AF3EE080AB4EEF4
:101D8000E00AF1EE10FADCD3114890ED000AFBEE08
:101D9000080AB4EEE00AF1EE10FAD2DC9FED0A0A6E
:101DA000002000F063F99FED080A012000F05EF9C1
:101DB000FA2001F0E5FE01200149087010BD000085
:101DC000090000200A00002000000000DC010020C3
:101DD000D8010020000C004000080040000028C28C
:101DE0000000184270B5FEF7A1FE994908709948A5
:101DF000007850282AD10846007897490978884207
:101E000024D1FFF767FF95480078532803D14E206F
:101E10009249087016E0914800784E2803D153206B
:101E20008E4908700EE08D480078572803D1452070
:101E30008A49087006E089480078452802D1572071
:101E40008649087000F016FAFFF7E2FC0024022031
:101E500008E08049095C7E4A1278914201D104462B
:101E600005E0401C7E490978891E8142F1DC00BFF3
:101E70007849601C0D5C4E2D0AD004DC452D7BD0CA
:101E8000472D70D19EE0532D28D0572DF9D14BE02E
:101E900072480078452819D04E2804D0532809D01C
:101EA000572819D10CE001206E4908704E206B496B
:101EB000087011E0FFF70EFF4E20684908700BE034
:101EC00001F04AFA4E206549087005E001F0EEF98C
:101ED0004E206249087000BF00BFB7E05F4800783D
:101EE000452819D04E2804D0532808D0572819D196
:101EF0000CE0FFF7EFFE53205849087012E0012074
:101F0000584908705320554908700BE001F0CEF98C
:101F100053205249087005E001F01EFA53204F4942
:101F2000087000BF00BF91E04C48007845281BD0E6
:101F30004E2804D0532808D057281BD10BE001F0BD
:101F4000B5F957204549087014E001F005FA57200B
:101F5000424908700EE001204249087057203F496D
:101F6000087007E008E06DE0FFF7B4FE57203B493A
:101F7000087000BF00BF69E038480078452818D0D5
:101F80004E2804D0532808D0572819D10BE001F06F
:101F9000E3F945203149087012E001F087F9452046
:101FA0002E4908700CE0FFF795FE45202B4908707C
:101FB00006E001202B49087045202849087000BF21
:101FC00000BF43E026480078801E2249085C4E2866
:101FD00006D100F04FF91E4800781F4908702DE027
:101FE0001F480078801E1B49085C442826D100F059
:101FF00041F9FFF76FFE19480078532803D14E20AE
:102000001649087016E0154800784E2803D1532071
:10201000124908700EE011480078572803D1452076
:102020000E49087006E00D480078452802D1572077
:102030000A49087000F01EF9FEF7D0FA01200A499B
:10204000087003E001200749087000BF00BF70BDA1
:10205000860000201803002088000020890000204E
:1020600011020020090000200800002070B52DEDAD
:10207000028B0546B0EE408A9FED290AB4EEC08A75
:10208000F1EE10FA04DB9FED260AB0EE408A0AE07A
:102090009FED240AB4EEC08AF1EE10FA03D89FED4A
:1020A000210AB0EE408AB5EEC08AF1EE10FA01DBEB
:1020B000002406E001249FED1A0A38EE000AB0EE73
:1020C000408A65B9BCEEC80A10EE101A164800F036
:1020D000D1FBE2B240211548FEF722FD1CE0012DA4
:1020E0000CD1BCEEC80A10EE101A0F4800F0C4FB69
:1020F000E2B280210D48FEF713FD0DE0022D0BD159
:10210000BCEEC80A10EE101A074800F0B7FBE2B2A6
:1021100002210648FEF704FDBDEC028B70BD0000F5
:102120000000C8420000C8C2000400400004024091
:1021300010B50022028802F441520B884C882343D8
:102140008C882343CC8823430C8923434C89234325
:102150008C892343CC8923431A430280838B4FF21B
:10216000FF74234083830B8A038210BD002101800A
:1021700041808180C180018141818181C1810721AC
:1021800001827047704700000CB50020019000905C
:102190003448006840F480303249086000BF31485C
:1021A000006800F4003000900198401C01900098F5
:1021B00018B90198B0F5A04FF1D12A48006800F491
:1021C000003010B10120009001E000200090009844
:1021D000012846D123484030006840F08050214912
:1021E000403108602048006840F440401E490860C3
:1021F0001C48083000681B49083108600846006820
:1022000040F4004008600846006840F4A0500860B0
:102210001648091F0860081F006840F08070091FF9
:10222000086000BF0F48006800F000700028F9D077
:1022300040F205700E4908600A480830006820F036
:1022400003000849083108600846006840F00200B1
:10225000086000BF03480830006800F00C00082840
:10226000F8D10CBD0038024000700040085440070F
:10227000003C024010B50020054908709FED050A9A
:10228000FFF7F4FE9FED030A0120FFF7EFFE10BDFC
:1022900009000020000000000120044908600448F3
:1022A0000068401C0249086070470000FC010020E3
:1022B000F801002010B51548006840F4700013497B
:1022C00008601348006840F00100114908600020D0
:1022D0000F49083108600E4800680E4908400C4953
:1022E00008600D48091D0860081F006820F4802060
:1022F000091F0860002006490C310860FFF744FF01
:102300004FF0006001498039086010BD88ED00E0A1
:1023100000380240FFFFF6FE103000241FB50121F7
:102320000846FFF743FC42F2CF00ADF8040040F24C
:10233000E73002900020ADF80C00ADF8060001A9CE
:102340004FF0804000F09EFA01221146900700F005
:10235000A8F90121880700F054F91C208DF800002D
:1023600001208DF801008DF802008DF80300684609
:10237000FEF7B2FE1FBD000010B50121880700F076
:102380007FF930B34FF6AA7012490880A0208870F8
:102390000120C870104800684860104800688860D4
:1023A0000F48008800EE100AB8EE400A10EE100A3E
:1023B000C8609FED0C0A10EE100A086140F60D206F
:1023C00088821621034801F0C7F80121880700F030
:1023D00015F910BD4C0300205800002030000020EB
:1023E000600000200000000010B54FF6FE70364976
:1023F000088236480088401C344908804FF4BB717D
:102400003348FFF7D9FA3348D0ED000A30EE200AFE
:1024100080ED000AD0ED000A2F4890ED000AFEF78B
:1024200097FE40F26B112D48FEF77EFA2C4880EDA6
:10243000000A00202A4991ED000AFEF727FD2948ED
:1024400080ED000A40F26B112748FEF76DFA27482D
:1024500080ED000A0120254991ED000AFEF716FDE6
:10246000234880ED000A1F4890ED000A2048D0ED77
:10247000000A30EE200AF0EE000A80EE201A1D4815
:1024800080ED001AD0ED000A1B4890ED000AFFF71E
:102490004DF81A4880ED000AD0ED000A184800886F
:1024A00000EE100AB8EE400AFEF7B4FF362000280E
:1024B00007DB00F01F0201219140124A430942F854
:1024C000231000BF10BD00000010004000000020DD
:1024D0000004014004000020D40100200008004056
:1024E0004400002048000020000C00404C00002068
:1024F0005000002058000020300200203000002052
:102500006000002080E200E0362000280DDB00BFE4
:1025100000BF00F01F02012191404209920002F128
:10252000E022C2F8001100BF00BF00BF24480068CD
:1025300040F0010022490860081D006840F00100D9
:10254000091D08601E480C30006820F001001C497D
:102550000C310860081F006840F00100091F086086
:102560001848006840F010001649086016480088B6
:1025700040F00100144908800846008820F002005D
:1025800008800846008840F004000880084600885B
:1025900020F0080008800846008820F080000880AD
:1025A0000846808940F0010088810846808A40F012
:1025B0000100888242F2CF0008856320C86270471C
:1025C000003C014040380240001000400EB501219F
:1025D0002020FFF7EBFAA720ADF800004FF6FF70C0
:1025E00001900020ADF80800ADF8020069460248ED
:1025F00000F048F90EBD000000140040CA430282FA
:10260000704721B1028842F00102028004E0028892
:102610004FF6FE731A400280704731B1B0F8442083
:1026200042F40042A0F8442005E0B0F84420C2F390
:102630000E02A0F844207047F0B50C4615461E4621
:102640000021002200230189028B038C4FF6F877CA
:10265000394021434FF6FC473A4040F201173A43D4
:102660004FF6DD773B404FF6FF7707EA06172F431B
:102670003B43018102830384F0BD0146486A7047F1
:1026800030B50246002000230024158A05EA010324
:10269000958905EA010413B10CB1012000E0002086
:1026A00030BD1AB183890B43838102E083898B4358
:1026B0008381704770B5002400220023058C4FF6FB
:1026C000FE7635400584028C8388048B4FF68F7527
:1026D0002C40B51E2C400D882C43751E2A408D8938
:1026E0002A434D882A43104DA84202D00F4DA842DC
:1026F00013D14FF6F7752A40CD892A434FF6FB7563
:102700002A408D882A434FF6FF652B404FF6FF5530
:102710002B400D8A2B434D8A2B43838004838D6885
:102720004563028470BD00000000014000040140C8
:1027300070B5002400220023058C4FF6EF7635405B
:102740000584028C8388048B48F6FF752C404FF675
:10275000FF452C400D884FF6FF7606EA05252C43F1
:102760004FF6DF752A408D8906EA05152A434D8804
:1027700006EA05152A43154DA84202D0144DA84279
:102780001DD14FF67F752A40CD894FF6FF7606EAB8
:1027900005152A434FF6BF752A408D8806EA0515B0
:1027A0002A434FF6FF352B404FF2FF752B400D8A21
:1027B00006EA85052B434D8A06EA85052B4383806F
:1027C00004838D688563028470BD000000000140B1
:1027D0000004014070B5002400220023058C4FF650
:1027E000FF6635400584028C8388848B4FF68F7595
:1027F0002C404FF6FC752C400D882C434FF6FF55AE
:102800002A408D894FF6FF7606EA05252A434D8832
:1028100006EA05252A43154DA84202D0144DA842C8
:102820001DD14FF2FF752A40CD894FF6FF7606EA9B
:1028300005252A434FF6FF352A408D8806EA0525EF
:102840002A434EF6FF752B404DF6FF752B400D8A3F
:1028500006EA05152B434D8A06EA05152B438380AE
:1028600084838D68C563028470BD00000000014050
:10287000000401404163704781637047C163704742
:102880004162704700220288184B98420ED0184BC4
:1028900098420BD0B0F1804F08D0164B984205D02B
:1028A000154B984202D0154B984204D14FF68F73C6
:1028B0001A404B881A43124B984207D0114B98424A
:1028C00004D04FF6FF431A400B891A4302804B682D
:1028D000C3620B880385054B984202D0044B984293
:1028E00001D18B7A03860123838270470000014067
:1028F000000401400004004000080040000C0040BB
:10290000001000400014004001464FF40030081A47
:10291000C0F38F207047000000B502461046FFF755
:10292000F3FF012101FA00F0024909680843014957
:10293000086000BD303802402DE9F04304460E46E1
:102940001546DDE907892046FFF7DEFFC7B2002202
:1029500043E001209040304000B93CE0214830F88D
:1029600017000121914008431E4921F81700E06833
:102970004FEA420C032101FA0CF18843510008FA96
:1029800001F10843E06020684FEA420C032101FA9C
:102990000CF18843510005FA01F108432060012D34
:1029A00001D0022D16D161680120904080B221EA49
:1029B000000003FA02F189B208436060A0684FEAA0
:1029C000420C032101FA0CF18843510009FA01F18C
:1029D0000843A06000BF501CC2B2102AB9DBBDE89A
:1029E000F0830000B00300202DE9FC4705460E46A9
:1029F00017469846DDE90A9A0EB9BDE8FC872846D5
:102A0000FFF78AFF00241AE00120A040304000B9FF
:102A100014E0E10805F1200050F821006107CA0E1A
:102A20000F21914088436107C90E0AFA01F108435A
:102A3000E20805F1200141F8220000BF641C102CBF
:102A4000E2D33B46022231462846CDE90089FFF712
:102A500073FF00BFD1E710B5142000F0EFF8044673
:102A600004F0030018B90321142000F024F910BD6C
:102A70002DE9FC410446002700210D2000F0BEF99D
:102A8000932020702020607001A823460222214656
:102A900000900C2000F01CF906465EB9002503E00A
:102AA000605D4740681CC5B2042DF9DB605DB8422B
:102AB00000D002263046BDE8FC812DE9F0410746F2
:102AC000884615460421052000F039F880210A20A7
:102AD00000F0F1F8002405E0395D092000F08EF9DE
:102AE000601CC4B24445F7DB0321012000F086F9E5
:102AF000FF2400BF052000F0A1F80646601EC4B206
:102B00001CB106F004000028F4D0222000F096F852
:102B10002870212000F092F86870BDE8F08170B54F
:102B200004462146262000F0A7F805461DB9204698
:102B3000FFF79EFF054600F020F8284670BD70B5EF
:102B400005460C46284600F079F820EA040631468E
:102B5000284600F053F970BD10B502460B4600211F
:102B600007E0505C5C5CA04201D0022010BD481C14
:102B7000C1B20529F5DB0020F8E70EB550208DF82D
:102B8000040000208DF805000DF10602022101A8C5
:102B9000FFF793FF02A801AB042201A900900C20CB
:102BA00000F096F80EBD000010B500F027F80121E6
:102BB000114800F03FFA00F078F88D212A2000F04B
:102BC0001DF93E212B2000F019F91E212D2000F0C7
:102BD00015F900212C2000F011F97021262000F0B9
:102BE0000DF94021152000F009F93D21112000F0D8
:102BF00005F9FFF730FF10BD003C00401CB5012176
:102C00000420FEF7C3FF02208DF8050001208DF897
:102C1000040000208DF806008DF807004FF40070C6
:102C2000009069460448FDF703FF4FF40070024925
:102C3000183108801CBD00000008024070B5044631
:102C40004FF400700A4908807E2000EA440040F0FA
:102C50008001084800F053FA0021064800F04FFABE
:102C600005464FF400700249891E0880284670BD51
:102C70001A080240003C00407CB506460C4607217D
:102C80000D2000F0BBF8267001A823460122214642
:102C900000900C2000F01CF805461DB9BDF804009A
:102CA000102800D0022528467CBD10B50F21012038
:102CB00000F0A4F810BD70B505460C462846FFF795
:102CC000BDFF40EA04063146284600F097F870BD83
:102CD0002DE9FE4F0646884691469A46DDF830B00B
:102CE000022002900020019000900C2E06D00E2EA3
:102CF00009D1122001901020009005E0772001906A
:102D00003020009000E000BF00BF019840F080013B
:102D1000022000F073F880210420FFF710FF8021CB
:102D20000A20FFF7C8FF0021012000F067F8002506
:102D300006E018F80510092000F060F8681C85B25C
:102D40004D45F6DB3146012000F058F80C2E03D13A
:102D500080210D20FFF7AFFF4FF4FA6500BF04207C
:102D6000FFF76CFF0446681E85B235B104F0010020
:102D700018B9009820400028F1D080210D20FFF7DD
:102D8000DEFE002D36D00620FFF758FF00F01B00B6
:102D900070BB002002900198204000F0010008B1B3
:102DA000012002900C2E25D10A20FFF747FF044690
:102DB0000C20FFF743FF00F007072FB1601E07EB61
:102DC000C000ABF8000002E0E000ABF8000004B97E
:102DD0000124102C00DD1024002506E00920FFF757
:102DE0002DFF0AF80500681C85B2A542F6DB01E05C
:102DF000022002900298BDE8FE8F000070B50446E4
:102E00000D464FF40070094908807E2000EA440115
:102E1000074800F074F92946054800F070F94FF4AE
:102E200000700249891E088070BD00001A08024027
:102E3000003C00401CB504464CB90520032100238A
:102E40001A46CDE90010E0210A48FFF7CDFD012C1C
:102E500009D10520032100231A46CDE900103821AD
:102E60000548FFF7C1FD032C03D10521034800F0FD
:102E700045F91CBD00000240000402400030014042
:102E80001CB50446A4B90520032100231A46CDE948
:102E900000104FF480611648FFF7A6FD05200321BE
:102EA00000231A46CDE900100C211248FFF79CFDC3
:102EB000012C0AD10520032100231A46CDE9001078
:102EC0004FF460410A48FFF78FFD022C09D105201D
:102ED000032100231A46CDE900100D210648FFF713
:102EE00083FD032C03D10521044800F007F91CBD24
:102EF0000004024000080240002002400038004068
:102F00001CB504464CB90620032100231A46CDE91E
:102F1000001038210B48FFF767FD012C0AD106206D
:102F2000032100231A46CDE900104FF4E051064872
:102F3000FFF75AFD032C03D10621044800F0DEF808
:102F40001CBD00000004024000080240003C00409C
:102F50001CB504464CB90520032100231A46CDE9CF
:102F6000001064210B48FFF73FFD012C0AD105201A
:102F7000032100231A46CDE900104FF4E041054833
:102F8000FFF732FD032C03D10521034800F0B6F80A
:102F90001CBD000000100240003401401CB5044676
:102FA00054B90520032100231A46CDE900104FF43F
:102FB00060711048FFF718FD012C13D10520032183
:102FC00000231A46CDE90010E1020A48FFF70CFD84
:102FD0000520032100231A46CDE90010C021064830
:102FE000FFF702FD032C03D10521044800F086F809
:102FF0001CBD000000140240001C024000500140B3
:103000001CB5044654B90520032100231A46CDE916
:1030100000104FF4E0410548FFF7E6FC032C03D114
:103020000521034800F06AF81CBD000000180240AA
:10303000005401407CB504460D462A4884420AD11A
:1030400000204FF4827120230246CDE9001029466A
:10305000204600F075F8244884420AD100204FF43D
:10306000827120230246CDE900102946204600F057
:1030700067F81E4884420AD100204FF48271202351
:103080000246CDE900102946204600F059F81848BC
:1030900084420AD100204FF4827120230246CDE9F8
:1030A00000102946204600F04BF8124884420AD10D
:1030B00000204FF4827120230246CDE900102946FA
:1030C000204600F03DF80C4884420AD100204FF41D
:1030D000827120230246CDE900102946204600F0E7
:1030E0002FF87CBD0030014000380040003C00401B
:1030F0000034014000500140005401407047024636
:10310000108800F0400008B90020704700BF108907
:1031100000F003000028FAD0108900F08000002899
:10312000F5D1918100BF108900F003000028FAD08A
:10313000108900F080000028F5D19089C0B2E4E742
:103140002DE9F04385B004460E4615461F46DDE9DD
:103150000C896846FFF70AF84D4884420BD14D4868
:10316000006840F480504B4908603046FFF762FE2B
:103170000020ADF80400484884420DD14548001FA6
:10318000006840F480404349091F08603046FFF75B
:1031900077FE0020ADF80400404884420DD13D4840
:1031A000001F006840F400403A49091F086030469B
:1031B000FFF7A6FE0020ADF80400394884420BD189
:1031C0003448006840F40050324908603046FFF748
:1031D000BFFE0020ADF80400324884420BD12D48D8
:1031E000006840F480102B4908603046FFF7D6FE97
:1031F0000020ADF804002C4884420BD1254800681B
:1032000040F40010234908603046FFF7F9FE002023
:10321000ADF80400ADF80C700020ADF80000ADF87A
:103220000E90ADF802804FF40070ADF80A002DB991
:103230000020ADF80600ADF8080019E0012D06D118
:103240000020ADF806000120ADF8080010E0022DC6
:1032500006D10220ADF806000020ADF8080007E016
:10326000032D05D10220ADF806000120ADF80800BD
:10327000208820F04000208069462046FEF758FF55
:10328000208840F04000208005B0BDE8F0830000B9
:10329000003001404438024000380040003C00400B
:1032A00000340140005001400054014010B500209E
:1032B000234908700846007810B900202149087099
:1032C0009FED210A0020FEF7D1FE9FED1F0A01208D
:1032D000FEF7CCFEFA2000F053FC9FED1B0A002005
:1032E000FEF7C4FE9FED190A0120FEF7BFFE4FF462
:1032F0007A7000F045FC1648FEF7F4FB154908808B
:103300000EE01348FEF7EEFB124908809FED0E0A0F
:103310000020FEF7ABFE9FED0D0A0120FEF7A6FE92
:103320000C48008840F28A218842EADB094800887C
:1033300040F246518842E4DC01200149087010BD8A
:10334000090000200A0000200000000000003C42AC
:10335000420300206000002010B5002023490870BF
:103360000846007810B90020214908709FED210A15
:103370000020FEF77BFE9FED1F0A0120FEF776FE80
:10338000FA2000F0FDFB9FED1C0A0020FEF76EFE08
:103390009FED180A0120FEF769FE4FF47A7000F0E5
:1033A000EFFB1648FEF79EFB154908800EE0134818
:1033B000FEF798FB124908809FED0F0A0020FEF7E8
:1033C00055FE9FED0C0A0120FEF750FE0C480088C8
:1033D00040F28A218842EADB0948008840F24651DF
:1033E0008842E4DC01200149087010BD090000207A
:1033F0000A000020000000000000344242030020C8
:103400006000002000B597B001210820FEF7BEFB48
:1034100001214804FEF7CAFB01214805FEF7B6FB6F
:103420002020159002208DF8580000208DF85A00B9
:1034300001208DF85B0002208DF8590015A9414844
:10344000FDF7F6FA4020159002208DF8580015A9D6
:103450003C48FDF7EDFA072205213A48FDF730FB1D
:10346000072206213748FDF72BFB4FF4E13011907E
:103470000020ADF84800ADF84A00ADF84C00ADF8BA
:1034800050000C20ADF84E0011A92F4800F09CF818
:1034900001212D4800F076F8012240212A4800F051
:1034A0007DF801228021284800F078F84FF0006074
:1034B00002902548001D03902448049000200590A8
:1034C00001200690002007904FF4806008900020B3
:1034D00009900A900B904FF400300C9000200D9052
:1034E00001200E9000200F90109002A91848FDF7BF
:1034F00047F801211648FDF71BF8164804904020B4
:1035000005901620069002A911481830FDF738F8EA
:1035100001210F481830FDF70BF810208DF804003A
:1035200000208DF805008DF8060001208DF80700B9
:1035300001A8FDF7D1FD012210210548FDF703F890
:1035400017B000BD000C02400044004010020020F3
:10355000886002409A03002070B505460E4600249C
:103560000BE0295D064800F099F800BF802104486F
:1035700000F01DF80028F9D0641CB442F1DB70BDE6
:103580000044004021B1828942F40052828104E06B
:1035900082894DF6FF731A40828170471AB1838A7F
:1035A0000B43838202E0838A8B4383827047024607
:1035B0000020B1F5007F00D100BF13880B400BB194
:1035C000012000E0002070472DE9FF4705460E4628
:1035D0000024A14600BFA046B08900B100BF2C8ADC
:1035E00024F44054F08804432C82AC8941F20C60EE
:1035F0008443B08831890843718908430443AC810E
:10360000AC8A24F44074B0890443AC826846FEF767
:10361000EDFA2048854202D01F48854202D1DDF8EC
:103620000C9001E0DDF80890A88900F4004040B15A
:1036300009EBC90000EB091031684900B0FBF1F754
:1036400007E009EBC90000EB091031688900B0FB05
:10365000F1F76420B7FBF0F004012009642101FBBD
:103660001078A88900F4004040B1322000EBC80077
:10367000B0FBF1F000F00700044308E0322000EB5B
:1036800008106421B0FBF1F000F00F0004432C811E
:10369000BDE8FF870010014000140140C1F308029B
:1036A0008280704700BFFEE703B401984100009894
:1036B00050EAC12018BF04204A0D18BF40F0010095
:1036C00040F2FF72B2EB515F08BF40F002000128E8
:1036D00008BF052002B0704770B52DED020B2DED2F
:1036E0000A8B82B00D98C40F20F00045AE48854289
:1036F00048D3AE48854219D30C99C5F3130008434B
:1037000009D09DED0C0B02B0BDEC0A8B02B0BDE8F8
:10371000704000F009BA002C14BF9FEDA50B9DED81
:103720000C0B02B0BDEC0A8B02B070BD9FEDA20B7A
:1037300053EC102B9DED0C0B51EC100B00F0FEFF29
:103740000AD20220FCF7B8FD02B0BDEC0A8B02B031
:10375000BDE8704000F0F4B99FED990B53EC102BCD
:103760009DED0C0B51EC100B00F0AEFE0AD20220C6
:10377000FCF7A2FD02B0BDEC0A8B02B0BDE87040C0
:1037800000F0EEB990489FED92BBA8425CD29248FF
:10379000854219D29148784400EBC40090ED000BAB
:1037A00053EC102B9DED0C0B51EC100B01F008F8B5
:1037B00041EC1A0B8A48784400EBC40090ED009B62
:1037C000C4F10100041B36E09FED870B53EC102B76
:1037D0009DED0C0B51EC100B00F0B2FE41EC100B08
:1037E0008348784400EBC40090ED001B51EC100BB3
:1037F00053EC112B00F016FC00F020FE044600F004
:103800004CFE41EC180B9FED7C0B53EC102B00F0A1
:1038100097FE9DED0C1B53EC112B00F0C5FF41EC06
:103820001A0B9FED770B51EC180B53EC102B00F09B
:1038300087FE41EC190B51EC1A0B53EC192B00F0DD
:10384000BFFFCDE90C011BE06F48854217D29FED09
:10385000700B53EC102B9DED0C0B51EC100B00F08A
:10386000E1FB53EC1B2B00F069FF08D29DED0C0B24
:1038700053EC1B2B51EC100B00F0D4FB6EE000243A
:103880009DED0C0B53EC102B51EC100B00F058FE7F
:1038900041EC180B60480521B0EE480AF0EE680ACA
:1038A000784400F0C5F853EC182B51EC100B00F0E5
:1038B00047FE9DED0C1B53EC112B00F075FF41EC06
:1038C000180B9FED570B5CB353EC182B51EC100BFE
:1038D00000F076FF9DED0C0B41EC1C0B53EC182B0C
:1038E00051EC100B00F02CFE53EC1C2B00F04EFCA6
:1038F00053EC192B00F058FF53EC1A2B00F060FF2B
:1039000053EC1B2B00F050FFCDE900016FF47F70EA
:10391000844226DB01EB045001909DED000B00E793
:1039200053EC102B51EC180B00F04AFF9DED0C0BE3
:1039300041EC190B53EC182B51EC100B00F000FE6E
:1039400053EC192B00F022FC9DED0C1B53EC112BBA
:1039500000F036FF53EC1B2B00F026FF41EC100B60
:10396000DFE608464FF07A5101EB04519FED2E0B34
:10397000084453EC102B01909DED000B51EC100B03
:1039800000F0DEFD0D4645EC100B044651EC100B2B
:10399000FFF78AFE042808BF00F0E2F845EC104B60
:1039A000BFE6000000000000422E86400000F07FCD
:1039B0000000000000000000EF39FAFE422E8640B1
:1039C00051302DD5104987C0422ED63F000000004F
:1039D000000000000000F03FB2A2F03F061300001C
:1039E000F612000000000000FE822B654715F73F2D
:1039F000AA120000000000000000E0FE422EE63F98
:103A0000763C7935EF39EA3D0000303E0000000099
:103A10009C7500883CE4377E1C120000000000000A
:103A200000000000000000400000000000007001E5
:103A300070B504462DED028B4D1E00EBC500B0EEB7
:103A4000408AF0EE608A90ED000B35F0060017D04A
:103A500053EC182B51EC100B00F072FD41EC100BE5
:103A60006D1E04EBC50090ED001B51EC100B53ECE8
:103A7000112B00F0D7FA41EC100B35F00600E7D11E
:103A8000022D36D0042D1CD0062D1CBFBDEC028BA0
:103A900070BD53EC182B51EC100B00F051FD94ED60
:103AA0000A1B53EC112B00F0BDFA53EC182B00F05D
:103AB00047FD94ED081B53EC112B00F0B3FA41ECD9
:103AC000100B53EC182B51EC100B00F039FD94ED5A
:103AD000061B53EC112B00F0A5FA53EC182B00F049
:103AE0002FFD94ED040B53EC102B00F09BFA41ECEE
:103AF000100B53EC182B51EC100B00F021FD94ED42
:103B0000021B53EC112B00F08DFA53EC182B00F034
:103B100017FD94ED001B53EC112B00F083FABDEC64
:103B2000028B41EC100B70BD10B553EC102B51EC17
:103B3000100B00F077FA41EC100B10BD00000000F4
:103B40009FED050B10B553EC102B51EC100B00F052
:103B5000F7FC41EC100B10BD0000000000000070ED
:103B60009FED050B10B553EC102B51EC100B00F032
:103B7000E7FC41EC100B10BD00000000000000103D
:103B800010B504460BE000210648FEF779FE00BFA1
:103B90000448FEF772FDB0F57A7FF9D3641E002C5D
:103BA000F1D110BD0018004010B5044600210548B1
:103BB000FEF766FE00BF0348FEF75FFDA042FAD3A2
:103BC00010BD0000001800401CB501210220FDF7C7
:103BD000DDFF01208DF804008DF806004FF44060F1
:103BE000009000208DF8070003208DF8050069463D
:103BF0000648FCF71DFF4FF480610448FCF78EFF78
:103C00004FF400610148FCF789FF1CBD000402402D
:103C100070B505464FF480612448FCF77FFF032010
:103C2000FFF7C2FF00261EE06006040E4FF400619D
:103C30001E48FCF773FF0320FFF7B6FF4FF48061C7
:103C40001A48FCF760FF08B144F001040220FFF7B6
:103C5000ABFF4FF400611548FCF75EFF0520FFF74E
:103C6000A3FF701CC6B2082EDEDB2DB14FF48061BD
:103C70000E48FCF751FF04E04FF480610B48FCF75D
:103C80004DFF0320FFF790FF4FF400610748FCF75A
:103C900045FF0520FFF788FF4FF400610348FCF75C
:103CA0003BFF0520FFF780FF204670BD0004024067
:103CB00010B54FF400610F48FCF730FF0320FFF709
:103CC00073FF4FF480610B48FCF728FF0320FFF7D8
:103CD0006BFF4FF480610748FCF71EFF0320FFF7DE
:103CE00063FF4FF400610348FCF716FF0320FFF762
:103CF0005BFF10BD0004024010B54FF480610B481B
:103D0000FCF70AFF0320FFF74FFF4FF4006107485D
:103D1000FCF704FF0320FFF747FF4FF480610348DF
:103D2000FCF7FCFE0320FFF73FFF10BD000402403C
:103D300070B50446002624E004F0800028B14FF45A
:103D400080612448FCF7EAFE04E04FF480612148DA
:103D5000FCF7E2FE0320FFF727FF4FF400611D4848
:103D6000FCF7DCFE0520FFF71FFF4FF40061194848
:103D7000FCF7D2FE0220FFF717FF6006040E701C4E
:103D8000C6B2082ED8DB4FF480611248FCF7C6FE9D
:103D90000320FFF709FF4FF400610E48FCF7BEFE59
:103DA0000320FFF701FF4FF480610A48FCF7ABFEE8
:103DB00008B1002500E001250220FFF7F5FE4FF4D1
:103DC00000610448FCF7A8FE0520FFF7EDFE284639
:103DD00070BD0000000402401CB55F4800684FF44D
:103DE0007A72B0FBF2F1481EB0F1807F00D31BE085
:103DF000481E4FF0E022506150170F22002804DBCC
:103E000013071C0E554B1C5406E013071D0E544B94
:103E100000F00F04241F1D5500BF00204FF0E022CA
:103E200090610720106100BF01210846FDF7AEFE3A
:103E300001210220FDF7AAFE01210420FDF7A6FEC4
:103E400001210820FDF7A2FEFDF730FCFCF7A4FCE1
:103E5000FDF75EFAFCF774FAFEF7B8FBFFF7D2FA4B
:103E6000FEF752FBFEF75AFAFEF79EFEFCF706FF3E
:103E7000FCF7E0FE0120FCF7CDFE3AA0FCF759FF6D
:103E8000FCF752FF3BA0FCF754FF00208DF8040024
:103E900001208DF806004FF44040009001208DF87D
:103EA000070002208DF8050069463648FCF7C0FD82
:103EB000354890ED000A354880ED000A4AE0334865
:103EC00090ED000A304880ED000A31480068012872
:103ED00032D13048FDF706FE2F4908802F48007880
:103EE000012814D12E480078012810D1002004E0C8
:103EF0002C49095C2C4A1154401C1E28F8DB002078
:103F00002749087025490870012028490870284869
:103F1000FEF705FE28B9012026490870FDF762FF6B
:103F200002E000202349087023480088401C2249F1
:103F300008800020164908601F4800880A2802D11E
:103F400000201D4908801D480088642802D10020F7
:103F50001A490880B3E70000E401002000E400E013
:103F600018ED00E053544D33324634303756475441
:103F7000360000004932433A20504131202D205074
:103F800041320000000402400040024004000020D2
:103F9000FC010020420300206000002008000020F7
:103FA0006C0200207C030020180300200900002080
:103FB0003C0000200A0000200C0000200E00002021
:103FC00021F00042A2F16052B2F5801F01F00043DF
:103FD00028BFD2F17F6C0BD95FEA001C43EAC20212
:103FE00042EB507018BF704728BF20F001007047A7
:103FF000B2F5801FBCBF184670474FEA410C1CF554
:10400000001F02D2084600F03BBD70B500F042FB35
:1040100000000089FFF7F6BF4FF00040A0F58000D8
:104020007047000010B591EA030F48BF83F00043CA
:1040300000F1CE83841A71EB030C05D2121943EB05
:104040000C03001B61EB0C01DFF824E14FEA115473
:10405000A4EB135C1EEA430F18BF9EEA445F73D0C3
:1040600023EA0E03DCF1200E21EA045143F480130D
:1040700032D322FA0CFE10EB0E0023FA0CFE41EBB9
:104080000E01CCF1200E03FA0EFE10EB0E0051F1E2
:104090000001B1F5801FCCF1200E32D201EB0451AA
:1040A00012FA0EF2BDE8104058BF7047401C38BFEE
:1040B0005FEA420218BF7047002814BF20F00100D9
:1040C00041F100014FEA410313F5001F38BF70476B
:1040D000A1F1C04100F02CBB012A43EB0302ACF17B
:1040E000200CDCF11F0E32BF4FF0000E23FA0CF350
:1040F00010EB030041EB0451B4EB115FD0D0A1EB06
:10410000045101F5801149085FEA300001EB0451C8
:104110000ED350F1000038BF12FA0EFE08D1BDE8F0
:104120001040C9E7401C38BF5FEA4202CAD1C3E76A
:10413000BDE810404FEA410313F5001F38BF704738
:10414000A1F1C04100F0F4BA9EEA445F08D011EA40
:104150005E0FBDE8104004BF01F000410020704731
:10416000BDE8104070B500F095FA00BF64FBBE3E9C
:104170000000E0FF491058BFC1F140415B1058BF3B
:10418000C3F140438B42EFF3008070472DE9C041FB
:1041900030B4DFF8A0C23CEA111418BF3CEA131493
:1041A00000F0EC8081EA03051CEA111444EAD5749E
:1041B00018BF1CEA131500F0C780A4EB05044FF0EC
:1041C000004545EAC12145EAC32341EA505143EA8B
:1041D000525304F17F74994204F500344FEAC02031
:1041E0004FEAC22208BF904200F09C804FEA13655C
:1041F0000FF24016765D4FEA134506FB05F7C7F14F
:10420000807706FB07F74FEAD737A7FB03687642AC
:10421000C8F58038A7FB06CE38BFA8F1010807FB18
:1042200008E64FF0000EA6FB028CE6FB03CEDCF1A5
:10423000000CCEF1004E38BFAEF1010EA6FB0C58BB
:104240004FF000074FF00005E6FB0E87A1FB08C604
:10425000A0FB07CE16EB0E0645F10005E1FB076556
:1042600015F1E04E7EBFA4F580345FEA46066D414D
:1042700016F1800745F100054FEA17274FEA066659
:1042800047EA0567A6F1DE46B6F1805F4FEA1525DD
:104290001FD9384624F0010C05EBC471BCF1FE6F48
:1042A00001EB0C1102D8F0BCBDE8008124425CBFD8
:1042B00001F5801E9EEAC47F02D4F0BCBDE80081F7
:1042C000244238D4F0BCA1F1C041BDE8004100F067
:1042D0002FBA4FEAD22242EA43524FEAD323A7FB36
:1042E00002864FEAD02040EA415007FB03661EEAEF
:1042F0000E0F4FEAD12105FB026658BFA6EB005610
:10430000B6EB00564FEA520E4EEAC37E18EB0E0E85
:1043100056EB530EBDD518EB02085E417F1C55F1DC
:104320000005B6E74FF480154FF000074FF0000688
:104330004FF00008ADE7F0BC4FF0000001F1C041C4
:1043400001F00041BDE8008111EA0C1F0CEA1315D1
:1043500000D00CE013EA0C1F00F025804FF00000A5
:10436000F0BC81EA030101F00041BDE80081F0BC2E
:10437000BDE8004181EA030100F0DAB9F0BCBDE814
:10438000004170B500F086F9097EFC3E00F007B8E8
:1043900081EA03014FF0000001F00041704781EA1B
:1043A000030100F0C5B9F0BCBDE800414FF00000CA
:1043B00021497047FFFDFBF9F7F5F4F2F0EEEDEB64
:1043C000E9E8E6E4E3E1E0DEDDDBDAD8D7D5D4D313
:1043D000D1D0CFCDCCCBCAC8C7C6C5C4C2C1C0BF5F
:1043E000BEBDBCBBBAB9B8B7B6B5B4B3B2B1B0AF65
:1043F000AEADACABAAA9A8A8A7A6A5A4A3A3A2A149
:10440000A09F9F9E9D9C9C9B9A9999989797969503
:1044100095949393929191908F8F8E8E8D8C8C8B9F
:104420008B8A898988888787868585848483838227
:10443000828181800000FF070000F87F4FEA41037E
:104440004FEA5353A3F58063D3F11E03C8BFD3F1E2
:10445000210C0CDD4FF0004242EAC12242EA5052E8
:1044600032FA03FC8CEAE17CACEBE1707047102B74
:10447000C4BF0020704703F5787CBCF1FF3F04D037
:104480006FF0004282EA2100704770B500F002F937
:104490004992248000207047F2E710F0004248BFA4
:1044A0004042B0FA80F310FA03F10AD0C3F11D03C1
:1044B00003F580634FEA415002EB035202EBD12136
:1044C00070474FF00000704751EA030C17D41CF5F9
:1044D000801F58BFBCF5801F00F10680994218BFAD
:1044E000704708BF9042704707D711F5801F58BF2B
:1044F00013F5801F19D499427047894270471CF503
:10450000801F08D5BCF5801FF7D58B4218BF7047B8
:1045100008BF824270474FF4001C1CEB410F38BFAC
:104520001CEB430F01D28B42704770B500F0B2F81C
:10453000922449004FF000514FF08053FFF71ABE0C
:10454000DFF848C170B51CEA111E1EBF1CEA131526
:104550009EEA0C0F95EA0C0F00F06F8081EA0304CD
:1045600023EA4C134EEAD47E21EA4C1141F4801127
:1045700043F48013AE44A1FB024CA0FB0365AEF1F3
:104580007F7E361955EB0C05A1FB034C4CF1000363
:10459000A0FB021C16EB0C06654153F10003094217
:1045A00018BF46F0010613F4007F0BD14FEA033128
:1045B0004FEA0530340341EA155140EA16506FF0D6
:1045C00003020AE04FEAC3214FEAC520F40241EAA0
:1045D000555140EA56506FF0020202EB2E4201EBB9
:1045E000025585EACE710AD05FEA440C18BF24F068
:1045F000004450F1000041F1000120EAD47040F283
:10460000FE7C624500D270BDA84214BF4FF08044CA
:104610004FF04044002E08BF0024BEF1806FA8BFB9
:10462000A1F1C041BDE8704080F282804FF00000EF
:1046300001F1C04101F0004170479EEA0C0F0CEA05
:10464000131518BF95EA0C0F06D04FF0000081EA51
:10465000030E0EF0004170BD00F01CF88900013E11
:1046600000F007B800F009B84FEA430C5FEA5C5C61
:1046700008D081EA030100F05BB84FEA410C5FEA21
:104680005C5CF6D14FF00000014970470000FF0765
:104690000000F87F0EF1020E2EF0030E5EF8046BA0
:1046A000364205D4012A43EB030515F5001F12D845
:1046B000012841EB010C1CF5001F0CD80ED14FEA6C
:1046C000D17C15F5001F0CEB4C0C0CF1020C08BF53
:1046D0004CEBD37C04E04FF0080C01E04FEAD37CB4
:1046E0000CEB4C0526FA05F606F00706B6F1040CAD
:1046F00006D20EEB860CBDE870404CF0010C604712
:10470000DFE80CF0090B02024FF000414FF000000F
:10471000A1F5002170BD19461046012851EB010496
:1047200018BFD4F5001484BF002001F0004170BD13
:104730000808A0F500114FEA3101704753EA010C57
:1047400017D41CF5801F58BFBCF5801F00F10680F0
:104750008B4218BF704708BF8242704707D713F5D6
:10476000801F58BF11F5801F19D48B4270479B42A0
:1047700070471CF5801F08D5BCF5801FF7D59942FE
:1047800018BF704708BF904270474FF4001C1CEBE5
:10479000430F38BF1CEB410F01D2994270470FB451
:1047A0000CBC03BCFFF7C1BE91EA030F10B581F04A
:1047B00000413FF53FAC83F0004300F009B8000032
:1047C00010B591EA030F48BF83F000433FF532ACC8
:1047D000841A71EB030C07D212198CF0004C43EBD6
:1047E0000C03001B61EB0C01DFF8A4E14FEA11544C
:1047F000A4EB135C1EEA430F18BF9EEA445F00F06F
:10480000B08023EA6E03524221EA0451C3EB6E03E7
:1048100038BF5B1EDCF1200E25D322FA0CFE10EB14
:104820000E0043FA0CFE41EB0E01CCF1200E03FA10
:104830000EFE10EB0E0051F10001CCF1200E29D438
:1048400012FA0EF201EB0451BDE8104058BF704758
:10485000401C1CBFB2F1004F704700280CBF491C20
:1048600020F00100704712EB020E43EB030218BF69
:104870004FF0010E4EEA4202ACF1200CDCF11E0EAC
:1048800054D943FA0CFE10EB0E0051F1FF31CCF17C
:104890001E0ED5D50EF1010E12FA0EFE404141EB6F
:1048A000010101EB445C5FEA5C5C10D910EBDE7047
:1048B00001EB045138BFBEF1004FBDE8104018BFF6
:1048C000704700280CBF491C20F00100704730D20F
:1048D0004FEAD42C11F5001124F400641BD0B1FA76
:1048E00081F20B3AA41AA41ED2F12003914030FAAF
:1048F00003F31943904001EBCC71002C01EB045100
:10490000BDE81040A8BF704701F1C0414FF0000062
:1049100001F000417047B0FA80F310FA03F100D1C2
:1049200010BDE41A173C4805C90AE4E701EB04513D
:1049300010BD491001EB0451BDE810404FEA3000B2
:1049400002E04FF0000170474A0008BF0042F8D073
:10495000B2F5001F28BF704701F000414FF0000082
:1049600070479EEA445F07D011EA5E0FBDE8104031
:1049700004BF002100207047BDE8104070B5FFF76C
:1049800089FE00BF40DFF63E83F0004110467047CD
:104990000000E0FF43004FEAD30C4FEA3C0C4340D9
:1049A0001FBF40070CF1605113F0FE4F70471CF021
:1049B000006F03D100200CF0004170470CF0004361
:1049C00043EA507010B540EACC0000F00EF800BF8A
:1049D000000000924FEA0001FFF7AABE4FF000412D
:1049E0004FF00000A1F5002170470EF1020E2EF0ED
:1049F000030E5EF8044B244204D44FEA4102B2F1A4
:104A00007F4F11D84FEA4003B3F17F4F0CD80ED13E
:104A10004FEAD07CB2F17F4F0CEB4C0C0CF1020C46
:104A200008BF4CEBD17C04E04FF0080C01E04FEAEA
:104A3000D17C0CEB4C0324FA03F404F00704B4F12A
:104A4000040C06D20EEB840CBDE810404CF0010CB7
:104A50006047DFE80CF0070802024FF00040A0F5C5
:104A6000800010BD0846420018BFD2F1807288BF96
:104A700000F0004010BD4FF04070E1EE100A7047AA
:104A8000FF2141EAD050C00570470000000000003F
:104A9000000000000000E03F000000000000E0BF58
:104AA0000000E0FE422EE63F0000E0FE422EE6BFA0
:104AB000763C7935EF39EA3D763C7935EF39EABD18
:104AC0003E5555555555C53F93BDBE166CC166BF85
:104AD0002CDE25AF6A56113FF16BD2C541BDBBBE7E
:104AE000D0A4BE726937663E084B00080000002063
:104AF00018030000C4010008A44C0008180300209B
:104B00008007000020020008810318010163484269
:104B10000310A04006153802030405031220416368
:104B20007A44C3803F131103126B220314374E37AC
:104B300018B1992E09F04E695C12EFC8494509F089
:104B4000F589640CF011895412EF20996112EF0578
:104B5000B95712EF13A95512EF01A95612EF0279B6
:104B60000E0BF08C695B12EFCF594309F0E3F97B30
:104B70000AF078896F0AF01C896B0AF01869E3095A
:104B8000F07369DF09F04FE9CC09F0DCE9C809F0FE
:104B9000D8494709F0F7694109F0D1293209F0E213
:104BA000591A07F0B4891707F069F91407F01A4980
:104BB0009A06F025799406F01B099906F066C997C4
:104BC00006F0A8499606F029399206F05D59930639
:104BD000F03CB91B06F054A91B07F045899506F077
:104BE000EA49191B2DB9231BD91932180D76C9139F
:104BF00007F02D491607F0A89955180879091907E3
:104C0000F0E7B92D182155099907F067199F07F0AA
:104C100071E99B07F08519A207F04CA91A08F04B1F
:104C2000991E08F07FA9F500342D7E093008F0C1E7
:104C3000092C08F0DD296212EFB6A9AD08F0FCA935
:104C4000B108F0E019C008F02119C408F025C961C5
:104C500012EF55496912EFDDF99807F096847A034F
:104C60000AC00901020304060708092914091218D9
:104C7000013C353333333FC640A69BC43A1AFF018B
:104C8000021564071C803E0AD7233C12011202124F
:104C90000412081280024830000A103F6F12033AD3
:044CA000CDCC4C3DEE
:040000050800026984
:00000001FF
